:040000007FEF16F088
:1010000000010000000A00000064000000E8030086
:101010000010270000A086010040420F0080969833
:101020000000E1F50500CA9A3BFDFCFE0401002921
:1010300017163A3726212019181211100D0C0A091B
:101040008708019500000102100228526561646959
:101050006E6720736563746F72203000526561643F
:10106000696E6720736563746F7273007772697459
:10107000652066696E697368656400496E697420ED
:101080007375636365737321004D42572053746118
:1010900072742E2E2E0053696E676C6520626C6F21
:1010A000636B00496E6974206661696C6564004415
:1010B0006F6E65204D425721005365632025642DD6
:1010C000256400446F6E653A20256C7500466169A1
:1010D0006C757265210025642D25642E2E2E00442A
:1010E0006F6E6520256C75004176673A2025640097
:0110F00000FF
:1010F200D3CF3BF09BCF3CF020EE6EF010EE41F0F0
:101102000F0EDBCFE3FFE806FCE29B909B929B94E1
:101112009B969B98D3508F0B6009D36E030ED3120C
:101122009B8C04D0420EE82EFED700D0D3A4FAD76F
:10113200400E63EC16F0020E316E040E306EBA0EE3
:10114200E82EFED7302EFCD7312EFAD700D08D8470
:101152009694000E566E090E566401D005D0FF0E0D
:1011620018EC17F0562AF7D78D94000E046E000E75
:10117200056E000E066E000E076E440EF66E100E21
:10118200F76E0800F55081EC13F0306E2D0EF66EFE
:10119200100EF76E0800F5503018D8A4E6D7AA0E44
:1011A200046E010E056E000E066E000E076E410EF5
:1011B200F66E100EF76E0800F55081EC13F0556EC6
:1011C2008D94000E566E030E566401D00DD056500B
:1011D200010D410EF324D96E000EF420DA6E1DECDF
:1011E20017F0DF6E562AEFD78D842C0EF66E100E96
:1011F200F76E0800F5CF30F055503014316E2C0EDA
:10120200F66E100EF76E0800F5503118D8A42CD0E7
:10121200010E0001806F000E046E000E056E000EBE
:10122200066E000E076E320EF66E100EF76E080096
:10123200F55081EC13F08D94000E566E030E566439
:1012420001D00DD05650010D410EF324D96E000E7F
:10125200F420DA6E1DEC17F0DF6E562AEFD78D847C
:101262004304D8A4120012D02D0EF66E100EF76EA3
:101272000800F550556293D74304D8A41200AA0E71
:101282004418D8A41200020E0001806F00018005EC
:10129200D8B408D0000E376E000E386E000E396ECC
:1012A200400E07D0000E376E000E386E000E396EFB
:1012B200000E3A6E37C00DF038C00EF039C00FF094
:1012C2003AC010F02F0EF66E100EF76E0800F550B1
:1012D20046EC16F0556E2E0EF66E100EF76E0800E6
:1012E200F5505518D8B413D02C0EF66E100EF76EBA
:1012F2000800F5CF30F055503014316E2C0EF66EDA
:10130200100EF76E0800F5503118D8A4D3D72C0E62
:10131200F66E100EF76E0800F5CF30F0555030140F
:10132200316E2C0EF66E100EF76E0800F550311865
:10133200D8A41CD000018005D8A414D0020E00014C
:10134200816F000E046E000E056E000E066E000E1A
:10135200076E420EF66E100EF76E0800F55081EC25
:1013620013F004D0000E00019B6F1200020E000168
:101372008119D8B427D0000E046E000E056E000E3F
:10138200066E000E076E320EF66E100EF76E080035
:10139200F55081EC13F08D941DEC17F0C00BC00AD0
:1013A200D8A402D0010E01D0000E0001816F000E00
:1013B200566E020E566401D004D01DEC17F0562A68
:1013C200F8D78D84000E046E020E056E000E066EB6
:1013D200000E076E3B0EF66E100EF76E0800F5500B
:1013E20081EC13F0306E2E0EF66E100EF76E0800C2
:1013F200F5503018D8A4E6D7020E0001936F000E04
:10140200926F000E046E000E056E000E066E000E48
:10141200076E3F0EF66E100EF76E0800F55081EC67
:1014220013F08D941DEC17F0306E2B0EF66E100E2D
:10143200F76E0800F5503018D8A4F4D7000E566E97
:101442000F0E566401D00DD05650010D410EF324FB
:10145200D96E000EF420DA6E1DEC17F0DF6E562AFC
:10146200EFD71DEC17F01DEC17F08D84020E000172
:101472008019D8A46CD0010E4A243D6E3E6A000E3B
:101482003E223F6A000E3F22406A000E402249502F
:10149200316E306A30C032F031C033F0000E33BEEC
:1014A200FF0E346E356E32503D1233503E123450C0
:1014B2003F123550401248C030F03F0E301630C057
:1014C20031F0326A336A346A32C034F031C033F0F8
:1014D200326A316A31503D1232503E1233503F125D
:1014E200345040123DC009F03EC00AF03FC00BF03C
:1014F20040C00CF0B0EC15F009C012F00AC013F0B5
:101502000BC014F0380E156E060E166E3F0E176ED7
:1015120070EC11F012C098F013C099F014C09AF058
:10152200000E156E000E166E450E176E98C012F064
:1015320099C013F09AC014F070EC11F012C021F0AF
:1015420013C022F014C023F0F6EC10F0BED047C056
:1015520030F0030E301630C031F0326A336A346A2A
:10156200040ED8903136323633363436E82EF9D777
:1015720031C051F032C052F033C053F034C054F095
:101582004850306E316AD89030363136D890303685
:10159200313630C032F031C033F0000E33BEFF0EB0
:1015A200346E356E3250511233505212345053123F
:1015B2003550541249C030F0D8903032D890303281
:1015C200300E3016010E3024316E326A000E322295
:1015D200336A000E3322346A000E34223150511223
:1015E2003250521233505312345054124AC030F017
:1015F200030E3016316A4BAE01D0312A313030340D
:10160200326E020E322651C033F052C034F053C053
:1016120035F054C036F0322A05D0D89033363436FD
:1016220035363636322EF9D733C051F034C052F047
:1016320035C053F036C054F046C030F00F0E3016AD
:1016420051C031F052C032F053C033F054C034F0C4
:10165200302A05D0D8903136323633363436302EF1
:10166200F9D731C051F032C052F033C053F034C018
:1016720054F051C009F052C00AF053C00BF054C0EC
:101682000CF0B0EC15F009C098F00AC099F00BC04C
:101692009AF092C009F093C00AF0C6EC16F009C0A5
:1016A2000FF00AC010F00BC011F098C00CF099C0F6
:1016B2000DF09AC00EF0EAEC11F00CC021F00DC052
:1016C20022F00EC023F0F6EC10F021C094F022C0FC
:1016D20095F023C096F024C097F0000E046E000E21
:1016E200056E000E066E000E076E3E0EF66E100EB2
:1016F200F76E0800F55081EC13F08D941DEC17F095
:10170200556E2B0EF66E100EF76E0800F5505562F0
:10171200F5D7000E566E0F0E566401D00DD05650FE
:10172200010D410EF324D96E000EF420DA6E1DEC89
:1017320017F0DF6E562AEFD71DEC17F01DEC17F0ED
:101742008D8441C082F04250306E43500001836F5D
:1017520030C084F044C089F045C030F0316A326A4A
:10176200336A30C033F0326A316A306A30C085F091
:1017720031C086F032C087F033C088F046C030F006
:10178200316A326A336A31C033F030C032F0316AC2
:10179200306A3050000185133150000186133250F7
:1017A2000001871333500001881347C030F0316ABB
:1017B200326A336A32C033F031C032F030C031F0B5
:1017C200306A3050000185133150000186133250C7
:1017D200000187133350000188134850000185131C
:1017E20049C08AF04AC030F0316A326A336A30C086
:1017F20033F0326A316A306A30C08BF031C08CF01B
:1018020032C08DF033C08EF04BC030F0316A326A94
:10181200336A31C033F030C032F0316A306A30504E
:1018220000018B13315000018C13325000018D13D3
:10183200335000018E134CC030F0316A326A336A81
:1018420032C033F031C032F030C031F0306A305043
:1018520000018B13315000018C13325000018D13A3
:10186200335000018E134D5000018B134E500F0B5D
:10187200306E4F5000018F6F30C090F05050FE0B11
:101882000001916F8D84C69A100EC66E3BC0D3FFC5
:101892003CC09BFF04D0420EE82EFED700D0D3A45A
:1018A200FAD7C68A010E0001A46F000E0001A06FD4
:1018B200000EA16F000EA26F000EA36F000E0001BA
:1018C2009C6F000E9D6F000E9E6F000E9F6F010EAB
:1018D2000001AD6F000E0001A96F000EAA6F000E8D
:1018E200AB6F000EAC6F000E0001A56F000EA66F6D
:1018F200000EA76F000EA86F010E00019B6F120071
:1019020004EC16F0DEEC15F00C0E0EEC17F079EC90
:1019120008F000019B51D8B407D07B0E196E100E4F
:101922001A6E74EC0FF007D0A30E196E100E1A6E19
:1019320074EC0FF0FFD7330E586EBB0E576EE00EED
:10194200E82EFED7572EFCD7582EFAD7C68A8D948A
:10195200000E0D6E000E0E6E000E0F6E000E106E5B
:10196200000E116E000E126E000E136E000E146E3B
:101972000EEC14F01DEC17F0FF0AD8A4FBD7000EF2
:101982006A6E000E6B6E000E6C6E000E6D6E6D5008
:101992006C1013E1020E6B5CD8B00FD0800E6A247B
:1019A200D96E0D0E6B20DA6E6AC0DFFF010E6A2659
:1019B200000E6B226C226D22EAD7000E0D6E000E15
:1019C2000E6E000E0F6E000E106E800E116E0D0E5A
:1019D200126E5DEC12F00009D8B4EFD7010E0EECD6
:1019E20017F0C30E576ECD0EE82EFED7572EFCD73A
:1019F20000F0800E0EEC17F0410E576EEE0EE82E40
:101A0200FED7572EFCD700D0960E196E100E1A6E06
:101A120074EC0FF0C00E0EEC17F06C0E196E100E77
:101A22001A6E74EC0FF0330E586EBB0E576EE00E4A
:101A3200E82EFED7572EFCD7582EFAD7010E696E24
:101A4200030E686EE80E676E000E6A6E000E6B6E15
:101A5200000E6C6E000E6D6E6D506C1013E1020E76
:101A62006B5CD8B00FD0800E6A24D96E0D0E6B203D
:101A7200DA6E340EDF6E010E6A26000E6B226C22C5
:101A82006D22EAD7010E0EEC17F0C30E576ECD0E83
:101A9200E82EFED7572EFCD700F0800E0EEC17F082
:101AA200410E576EEE0EE82EFED7572EFCD700D011
:101AB200890E196E100E1A6E74EC0FF06950126EC8
:101AC200136A146A156A67C016F068C017F0186ABC
:101AD200196AD3EC14F0000E6A6E000E6B6E000EE3
:101AE2006C6E000E6D6E3AD0800E0D6E0D0E0E6E87
:101AF20074EC10F00009D8B441D06AC00EF06BC08B
:101B02000FF06CC010F06DC011F0640E126E000E7A
:101B1200136E000E146E000E156E7DEC15F00E5055
:101B22000F1010101110D8A413D0010E076E000E62
:101B320026EC16F0C30E196E100E1A6E6AC01BF058
:101B42006BC01CF06CC01DF06DC01EF074EC0FF089
:101B5200010E6A26000E6B226C226D226750576EB0
:101B62006850586E596A5A6A57506A5C58506B5896
:101B720059506C585A506D58D8A0B6D79AEC16F0F6
:101B82008D84C69A010E0EEC17F0C30E576ECD0E61
:101B9200E82EFED7572EFCD700F0800E0EEC17F081
:101BA200410E576EEE0EE82EFED7572EFCD700D010
:101BB200AF0E196E100E1A6E74EC0FF0C00E0EEC12
:101BC20017F0DF0E196E100E1A6E6AC01BF06BC092
:101BD2001CF06CC01DF06DC01EF074EC0FF0330EE3
:101BE200586EBB0E576EE00EE82EFED7572EFCD76E
:101BF200582EFAD7C68A8D94010E0EEC17F0C30E3A
:101C0200576ECD0EE82EFED7572EFCD700F0800E71
:101C12000EEC17F0410E576EEE0EE82EFED7572E41
:101C2200FCD700D04B0E196E100E1A6E74EC0FF02A
:101C3200330E586EBB0E576EE00EE82EFED7572EAF
:101C4200FCD7582EFAD7000E0D6E000E0E6E000E47
:101C52000F6E000E106E800E116E0B0E126ECCEC1B
:101C620012F00009D8B418D0C00E0EEC17F0E80E2E
:101C7200196E100E1A6E800E0E6E0B0E0F6E020E85
:101C8200116E000E106E48EC15F0576E57501B6E19
:101C92001C6A74EC0FF009D0C00E0EEC17F0CD0EDA
:101CA200196E100E1A6E74EC0FF0330E586EBB0ED6
:101CB200576EE00EE82EFED7572EFCD7582EFAD7D5
:101CC200000E636E000E646E000E656E000E666E90
:101CD200A0C00DF0A1C00EF0A2C00FF0A3C010F082
:101CE20012EC15F0010E0EEC17F0C30E576ECD0E6E
:101CF200E82EFED7572EFCD700F0800E0EEC17F020
:101D0200410E576EEE0EE82EFED7572EFCD700D0AE
:101D12005C0E196E100E1A6E74EC0FF0C00E0EEC03
:101D220017F0D60E196E100E1A6E69C01BF01C6ADF
:101D320069506724576E000E6820586EFF0E5724B4
:101D42001D6EFF0E58201E6E74EC0FF0000E6A6EB0
:101D5200000E6B6E000E6C6E000E6D6E1DD0800E4E
:101D6200046E0B0E056EC9EC13F0800E0E6E0B0E98
:101D72000F6E020E116E000E106E48EC15F0576ECB
:101D820057506326000E642265226622010E6A26DF
:101D9200000E6B226C226D22A0C057F0A1C058F039
:101DA200A2C059F0A3C05AF0571E581E591E5A1EFF
:101DB200572A000E582259225A2200019C515724B8
:101DC2005B6E00019D5158205C6E00019E515920AE
:101DD2005D6E00019F515A205E6E010E5B245F6EA4
:101DE200000E5C20606E000E5D20616E000E5E20B3
:101DF200626E5F506A5C60506B5861506C58625002
:101E02006D58D8A0ACD7B2EC16F063C001F064C034
:101E120002F065C003F066C004F0A9C057F0AAC082
:101E220058F0ABC059F0ACC05AF0571E581E591E9C
:101E32005A1E572A000E582259225A220001A55131
:101E42005724056E0001A6515820066E0001A751C5
:101E52005920076E0001A8515A20086E53EC14F065
:101E620001C063F002C064F003C065F004C066F014
:101E72008D84C69A010E0EEC17F0C30E576ECD0E6E
:101E8200E82EFED7572EFCD700F0800E0EEC17F08E
:101E9200410E576EEE0EE82EFED7572EFCD700D01D
:101EA200B90E196E100E1A6E69C01BF01C6A6950C9
:101EB2006724576E000E6820586EFF0E57241D6E61
:101EC200FF0E58201E6E74EC0FF0C00E0EEC17F0D1
:101ED200E80E196E100E1A6E63C01BF064C01CF07F
:101EE20074EC0FF0FFD71B0E276E000E286EEED09B
:101EF200250E2A18D8B404D02A5004EC17F0E6D0E4
:101F0200000E296E04D0298802D0298C1AD019C05B
:101F1200F6FF1AC0F7FF194A1A2A0800F5CF2AF06D
:101F22002A50000AD8B41200640AD8B40AD00D0AA2
:101F3200D8B407D0050AD8B4E6D7190AD8B4E5D779
:101F4200C5D029BC2ED029A80ED027C0D9FF28C0C1
:101F5200DAFFDECF23F0DECF24F0DECF25F0DECFB6
:101F620026F0040E0ED027C0D9FF28C0DAFFDECF3C
:101F720023F0DDCF24F0000E24BEFF0E256E266E68
:101F8200020E2726000E282226AE2DD0030E29127D
:101F9200261E251E241E236C000E24222522262204
:101FA20022D029A80ED027C0D9FF28C0DAFFDECF61
:101FB20023F0DECF24F0DECF25F0DECF26F0040EB4
:101FC2000FD027C0D9FF28C0DAFFDECF1FF0DDCF48
:101FD20020F01FC023F020C024F0256A266A020EDA
:101FE2002726000E2822010E2A6E0A0E2A18D8B4BD
:101FF20018D02A50040D010EF324F66E100EF420B0
:10200200F76E0900F550235C0900F55024580900C9
:10201200F55025580900F5502658D8A002D02A2A92
:10202200E4D729C01FF0030E1F16D8B403D02D0E1B
:1020320004EC17F02A50216E226A21BE22063ED0FD
:1020420021C01FF022C020F0D8901F362036D89031
:102052001F362036010E1F24F66E100E2020F76E5A
:102062000900F5CF05F00900F5CF06F00900F5CF1C
:1020720007F00A00F5CF08F023C001F024C002F0F7
:1020820025C003F026C004F053EC14F001C00EF09A
:1020920002C00FF003C010F004C011F00A0E126E5D
:1020A200000E136E000E146E000E156E7DEC15F010
:1020B2000E50300F2A6E2A5004EC17F02106D8A0D9
:1020C20022062128BDE12228D8A4BAD719C0F6FFDA
:1020D2001AC0F7FF194A1A2A0800F5CF2AF02A5027
:1020E200D8B4120005D7000E126E000E116E000E4B
:1020F200106E000E0F6E8D941DEC17F0FF0AD8A41F
:10210200FBD72A0EF66E100EF76E0800F55018EC8B
:1021120017F0000E126E000E116E020E125CD8B095
:102122000DD011500D24D96E12500E20DA6EDF50F0
:10213200D8EC16F0106E114A122AEFD7020EF8EC04
:1021420016F01DEC17F01F0B106E1F0E1018D8B4EE
:10215200F8D78D843FD00001A451D8B40CD0A0C0D0
:102162009CF0A1C09DF0A2C09EF0A3C09FF0000E03
:102172000001A46F07D0010E00019C27000E9D23D1
:102182009E239F23010E1200000E046E000E056EA8
:10219200000E066E000E076E3D0EF66E100EF76E06
:1021A2000800F55081EC13F0000E1200000E046ED0
:1021B200000E056E000E066E000E076E3D0EF66EE8
:1021C200100EF76E0800F55081EC13F0000E1200AD
:1021D200000E12001050050AD8B4BDD70E0AD8B4AA
:1021E200D3D7060AD8B4E2D7F3D723C025F0266A9C
:1021F200276A2234253601E3268025502F6E2F5080
:10220200D8A409D0000E216E000E226E000E236E9D
:10221200000E246E1200170E256E21C026F022C079
:1022220027F023C028F02528296E04D0D890283220
:1022320027322632292EFAD726502A6E228EFF0EF8
:102242002116FF0E2216000E231621502B6E22504D
:102252002C6E23502D6E2E6A8E0E2F5E2FAE16D050
:102262002F50800A8F0FD8B009D0000E216E000EB9
:10227200226E000E236E000E246E1200D8902E32B3
:102282002D322C322B322F3EF9D715D0170E2F6458
:102292000FD0000E216E000E226E000E236E000E75
:1022A200246E1200D8902B362C362D362E362F0661
:1022B2002F50D8A4F7D72A50D8B408D02E1E2D1EDE
:1022C2002C1E2B6C000E2C222D222E222BC021F034
:1022D2002CC022F02DC023F02EC024F0120014C016
:1022E20018F0196A1A6A1334183601E31980185063
:1022F2001B6E1B50D8A407D0000E126E000E136E78
:10230200000E146E120017C018F0196A1A6A1634F9
:10231200183601E319801850206E2050D8A407D037
:10232200000E126E000E136E000E146E120020507C
:102332007B0F1B2614C020F01750201A800E201687
:10234200138E168EFF0E1516FF0E1616000E17169A
:10235200000E1C6E000E1D6E000E1E6E070E1F6E0E
:1023620012A006D015501C2616501D2217501E22F0
:10237200D890143213321232D890153616361736D8
:102382001F2EEED7090E1F6E12A006D015501C2666
:1023920016501D2217501E22D890143213321232B8
:1023A200D8901E321D321C321F2EEED71CC001F0F7
:1023B2001DC002F01EC003F01BC004F020C005F0D7
:1023C2002AEC13F001C012F002C013F003C014F0A3
:1023D20012000EC012F0136A146A0D34123601E3B1
:1023E20013801250196E1950D8A407D0000E0C6E2B
:1023F200000E0D6E000E0E6E120011C012F0136A66
:10240200146A1034123601E3138012501A6E1A50F5
:10241200D8A407D0000E0C6E000E0D6E000E0E6ECC
:102422001200000E166E000E176E000E186E1A5075
:10243200890F195E0EC01AF011501A1A800E1A1660
:102442000D8EFF0E0C16FF0E0D16000E0E16108EC0
:10245200FF0E0F16FF0E1016000E1116180E156E37
:10246200D8901636173618360F500C5C10500D588F
:1024720011500E58D8A007D00F500C5E10500D5AB4
:1024820011500E5A1680D8900C360D360E36152E77
:10249200E7D716C001F017C002F018C003F019C048
:1024A20004F01AC005F02AEC13F001C00CF002C0CF
:1024B2000DF003C00EF0120000018151D8A408D023
:1024C200090ED8900D360E360F361036E82EF9D793
:1024D2000DC004F00EC005F00FC006F010C007F0EA
:1024E200380EF66E100EF76E0800F55081EC13F000
:1024F200136E2E0EF66E100EF76E0800F5501318BE
:10250200D8A4E6D78D942B0EF66E100EF76E080047
:10251200F55018EC17F0000E166E000E156E020E36
:10252200165CD8B00CD015501124D96E165012205A
:10253200DA6EDF50D8EC16F0154A162AF0D7020EE2
:10254200F8EC16F01DEC17F0136ED89013300F0B49
:10255200146E8D8415D00DC09CF00EC09DF00FC07E
:102562009EF010C09FF01DEC17F00009D8B4FBD705
:10257200010E1200000E1200000E1200000E1200D8
:102582001450020AD8B4E7D7070AD8B4F3D7030A1B
:10259200D8B4F2D7F3D700018151D8A408D0090EDC
:1025A200D8900D360E360F361036E82EF9D70DC0FC
:1025B20004F00EC005F00FC006F010C007F03A0E8E
:1025C200F66E100EF76E0800F55081EC13F0166EE1
:1025D20016C013F00F0E1316D8B402D0000E12005C
:1025E2002E0EF66E100EF76E0800F5501662DFD74B
:1025F2008D941DEC17F0166E2B0EF66E100EF76E04
:102602000800F5501662F5D7000E156E000E146E16
:10261200020E155CD8B00CD014501124D96E15508E
:102622001220DA6E1DEC17F0DF6E144A152AF0D76D
:10263200FF0E18EC17F0FF0E18EC17F08D840DC08A
:10264200A5F00EC0A6F00FC0A7F010C0A8F0010EB2
:1026520012000450D8B405D0015002100310D8A4BF
:102662000CD0000E016E000E026E000E036E120000
:10267200042AD890033202320132000E0114066E8F
:10268200000E0214076EFE0E0314086E06500710A9
:102692000810D8B40CD0ECD7042A010E0126000E83
:1026A2000222000E0322D890033202320132000EBF
:1026B2000114066E000E0214076EFF0E0314086E5C
:1026C200065007100810D8B406D0E6D70406D890F2
:1026D20001360236033602BE03D0020E0460F6D77C
:1026E20004A0029ED8900432045003120550D8A4CC
:1026F200038E01C001F002C002F003C003F0120019
:102702000A6E000E0C6E8D941DEC17F0FF0AD8A411
:10271200FBD70A50400918EC17F0070E086E000E9E
:10272200096E0BD008C0D9FF09C0DAFFDF5018ECE0
:1027320017F00806D8A009060C2A030E0C64F2D77B
:10274200410EF66E100EF76E0800F5500A6209D0BF
:10275200400EF66E100EF76E0800F55018EC17F0EA
:1027620008D0430EF66E100EF76E0800F55018EC06
:1027720017F0000E0C6E1DEC17F00B6E0C2A080EF3
:102782000C6003D00B28D8B4F6D78D840B501200FE
:102792001DEC17F00009D8B4FBD78D941DEC17F08F
:1027A200066E2B0EF66E100EF76E0800F550061828
:1027B200D8A4F4D7000E086E000E076E020E085C55
:1027C200D8B00CD007500424D96E08500520DA6E18
:1027D2001DEC17F0DF6E074A082AF0D7FF0E18EC3F
:1027E20017F0FF0E18EC17F08D840001AD51D8B42C
:1027F2000CD0A9C0A5F0AAC0A6F0ABC0A7F0ACC08F
:10280200A8F0000E0001AD6F1200010E0001A52715
:10281200000EA623A723A823120000018151D8A4E9
:1028220010D0090ED8900D360E360F361036E82E1F
:10283200F9D7090ED8901136123613361436E82E0F
:10284200F9D70DC004F00EC005F00FC006F010C09D
:1028520007F0360EF66E100EF76E0800F55081EC9A
:1028620013F011C004F012C005F013C006F014C03A
:1028720007F0350EF66E100EF76E0800F55081EC7B
:1028820013F0000E046E000E056E000E066E000EB2
:10289200076E340EF66E100EF76E0800F55081ECDE
:1028A20013F01200000E096E000E0A6E000E0B6E7F
:1028B200000E0C6E0550061007100810D8B42AD06E
:1028C200010E0D6E06D0D89005360636073608364C
:1028D2000D2A08AEF8D7D89009360A360B360C36D0
:1028E2000550015C0650025807500358085004581E
:1028F200D8A009D00550015E0650025A0750035A6B
:102902000850045A0980D89008320732063205323C
:102912000D2EE1D709C001F00AC002F00BC003F08E
:102922000CC004F01200026E0250F00B016E8C50CB
:102932000F0B8C6E01508C108C6E000EF2BE010ECD
:102942007F6EF29E8C86530EE82EFED700F08C9698
:10295200C80E00D0E82EFDD77FB002D0F29E01D083
:10296200F28E0238F00B026E0250F00B016E8C50A8
:102972000F0B8C6E01508C108C6E000EF2BE010E8D
:102982007F6EF29E8C86530EE82EFED700F08C9658
:10299200C80E00D0E82EFDD77FB002D0F29E01D043
:1029A200F28E120000018151D8A408D0090ED890ED
:1029B2001236133614361536E82EF9D716C00DF036
:1029C20017C00EF018C00FF019C010F0300EF66EDE
:1029D200100EF76E0800F55046EC16F012C004F027
:1029E20013C005F014C006F015C007F0370EF66EDE
:1029F200100EF76E0800F55081EC13F01A6E2E0ED1
:102A0200F66E100EF76E0800F5501A18D8A4E6D725
:102A120012C0A0F013C0A1F014C0A2F015C0A3F020
:102A22001200000E126E00018151D8A408D0090EC6
:102A3200D8900D360E360F361036E82EF9D70DC067
:102A420004F00EC005F00FC006F010C007F0390EFA
:102A5200F66E100EF76E0800F55081EC13F0126E50
:102A620012C011F00F0E1116D8A412002E0EF66E1F
:102A7200100EF76E0800F5501262E1D70DC0A9F0F2
:102A82000EC0AAF00FC0ABF010C0ACF01200000EE6
:102A9200186E000E176E000E136E000E146E000EEE
:102AA200156E000E166E10D017500E24D96E1850E7
:102AB2000F20DA6EDF50126E12501326000E14220F
:102AC20015221622174A182A1050175C115018584E
:102AD200D8A0EAD713C001F014C002F015C003F069
:102AE20016C004F010C005F011C006F0076A086AAB
:102AF20053EC14F001501200125013101410151060
:102B0200D8B424D0010E166E06D0D89012361336E1
:102B120014361536162A15AEF8D712500E5C13501D
:102B22000F581450105815501158D8A008D01250F0
:102B32000E5E13500F5A1450105A1550115AD89055
:102B42001532143213321232162EE7D70EC00EF09F
:102B52000FC00FF010C010F011C011F012008E0E55
:102B6200116E06D0D8900C320B320A320932112A79
:102B7200000E09140D6E000E0A140E6E000E0B14D8
:102B82000F6EFF0E0C14106E0D500E100F10101061
:102B9200D8A4E8D709C001F00AC002F00BC003F0C4
:102BA20011C004F0000E056E2AEC13F001C009F00A
:102BB20002C00AF003C00BF01200C30E046ECD0E69
:102BC200E82EFED7042EFCD700F0330E0EEC17F0E1
:102BD200320E0EEC17F0280E0EEC17F00F0E0EEC64
:102BE20017F0060E0EEC17F0010E0EEC17F0C30EE6
:102BF200046ECD0EE82EFED7042EFCD700F00F0E89
:102C02000EEC17F01200000E896E000E8A6E000E96
:102C12008B6E000E8C6E000E8D6E000E926EF20E9A
:102C2200936E800E946E010E956E040E966EF18E6A
:102C3200000EC26E0F0EC16E000EB56EB496B10ECE
:102C4200C06EF096F28CF29E12000A6E800E0EECAE
:102C520017F0410E086EEE0EE82EFED7082EFCD7B6
:102C620000D0000E096E04D0C00E0EEC17F0092A37
:102C72000750095CD8A0F8D70A50D8B41200010E48
:102C8200046E0A50EAEC16F01200116E000E046E89
:102C9200000E056E000E066E000E076E330EF66E07
:102CA200100EF76E0800F55081EC13F00DC004F021
:102CB2000EC005F00FC006F010C007F0115081ECF5
:102CC20013F01200016EC69A000EC76E07D0110EE5
:102CD20003D0120E01D0100EC66E0BD00150040AA2
:102CE200D8B4F9D7140AD8B4F2D7500AD8B4F1D765
:102CF200F2D7949A94889496C68A12000BEE80F0CA
:102D020014EE00F0EE6AE550E150FCE1E250FAE127
:102D120000EE80F02E0EEE6AE806FDE100EE6EF0A7
:102D2200120EEE6AE806FDE1000EF86E000181EF78
:102D32000CF08D941DEC17F0FF0AD8A4FBD7290ED6
:102D4200F66E100EF76E0800F55018EC17F01DEC39
:102D520017F00009D8B4FBD78D84010E0001A46FCF
:102D62001200000E046E000E056E000E066E000EBE
:102D7200076E3D0EF66E100EF76E0800F55081ECF0
:102D820013F0010E0001AD6F120009C001F00AC07C
:102D920002F0036A8E0E046E000E056E2AEC13F02A
:102DA20001C009F002C00AF003C00BF01200026E6B
:102DB20002C0C9FF9EB602D0010E01D0000E016E04
:102DC200C7B002D0010E01D0000E0110F3E1C950CC
:102DD2001200056E05C006F00650D8B41200044475
:102DE200E846FC0B10090EEC17F00606F5D7046E48
:102DF20004C005F004D0FF0E18EC17F005060550CC
:102E0200D8B41200F8D7036E8C84035094EC14F0FB
:102E1200C80E00D0E82EFDD71200036E8C9403502A
:102E220094EC14F0C80E00D0E82EFDD71200036E09
:102E32000350D8EC16F01200FF0ED8EC16F0120078
:020000040020DA
:08000000FFFFFFFFFFFFFFFF00
:020000040030CA
:0E000000FF061F1EFF8381FF0F400FE00F4021
:00000001FF
