:040000003DEF16F0CA
:1010000000010000000A00000064000000E8030086
:101010000010270000A086010040420F0080969833
:101020000000E1F50500CA9A3B5010000410FDFCD9
:10103000FE0401002917163A37262120191812112B
:10104000100D0C0A0987080195004052656164691A
:101050006E6720736563746F72203000526561643F
:10106000696E6720736563746F7273007772697459
:10107000652066696E697368656400496E697420ED
:101080007375636365737321004D42572053746118
:1010900072742E2E2E0053696E676C6520626C6F21
:1010A000636B00496E6974206661696C6564004415
:1010B0006F6E65204D425721005365632025642DD6
:1010C000256400446F6E653A20256C7500466169A1
:1010D0006C7572652100446F6E6520256C7500414A
:1010E00076673A2025640000D3CF3BF09BCF3CF0DD
:1010F00020EEAEF010EE41F00F0EDBCFE3FFE8067E
:10110000FCE29B909B929B949B969B98D3508F0B59
:101110006009D36E030ED31204D0420EE82EFED720
:1011200000D0D3A4FAD7100E09EC16F0020E316EDF
:10113000040E306EBA0EE82EFED7302EFCD7312EBC
:10114000FAD700D08D849694000E516E090E51642A
:1011500001D005D0FF0ECBEC16F0512AF7D78D94B5
:10116000000E046E000E056E000E066E000E076E79
:10117000490EF66E100EF76E0800F550A9EC14F04B
:10118000306E320EF66E100EF76E0800F550301805
:10119000D8A4E6D7AA0E046E010E056E000E066EE8
:1011A000000E076E460EF66E100EF76E0800F55034
:1011B000A9EC14F05B6E8D94000E536E030E536415
:1011C00001D00DD05350010D410EF324D96E000E05
:1011D000F420DA6ED0EC16F0DF6E532AEFD78D8450
:1011E000310EF66E100EF76E0800F5CF30F05B5042
:1011F0003014316E310EF66E100EF76E0800F55099
:101200003118D8A42CD0010E0001806F000E046E9E
:10121000000E056E000E066E000E076E370EF66E9F
:10122000100EF76E0800F550A9EC14F08D94000E26
:10123000546E030E546401D00DD05450010D410E74
:10124000F324D96E000EF420DA6ED0EC16F0DF6EC7
:10125000542AEFD78D844304D8A4120012D0320E42
:10126000F66E100EF76E0800F5505B6293D74304DC
:10127000D8A41200AA0E4418D8A41200020E00012D
:10128000806F00018005D8B408D0000E376E000EC4
:10129000386E000E396E400E07D0000E376E000E0D
:1012A000386E000E396E000E3A6E37C00BF038C043
:1012B0000CF039C00DF03AC00EF0340EF66E100E80
:1012C000F76E0800F550ECEC15F05B6E330EF66E21
:1012D000100EF76E0800F5505B18D8B413D0310E1D
:1012E000F66E100EF76E0800F5CF30F05B5030143C
:1012F000316E310EF66E100EF76E0800F550311893
:10130000D8A4D3D7310EF66E100EF76E0800F5CFC5
:1013100030F05B503014316E310EF66E100EF76EF9
:101320000800F5503118D8A41CD000018005D8A4BD
:1013300014D0020E0001816F000E046E000E056EC7
:10134000000E066E000E076E470EF66E100EF76E5C
:101350000800F550A9EC14F004D0000E00019B6FBA
:101360001200020E00018119D8B427D0000E046EBD
:10137000000E056E000E066E000E076E370EF66E3E
:10138000100EF76E0800F550A9EC14F08D94D0EC17
:1013900016F0C00BC00AD8A402D0010E01D0000E76
:1013A0000001816F000E526E020E526401D004D013
:1013B000D0EC16F0522AF8D78D84000E046E020E7F
:1013C000056E000E066E000E076E400EF66E100ED5
:1013D000F76E0800F550A9EC14F0306E330EF66E7F
:1013E000100EF76E0800F5503018D8A4E6D7020E9C
:1013F0000001936F000E926F000E046E000E056EDA
:10140000000E066E000E076E440EF66E100EF76E9E
:101410000800F550A9EC14F08D94D0EC16F0306E65
:10142000300EF66E100EF76E0800F5503018D8A486
:10143000F4D7000E556E0F0E556401D00DD05550E7
:10144000010D410EF324D96E000EF420DA6ED0ECBB
:1014500016F0DF6E552AEFD7D0EC16F0D0EC16F070
:101460008D84020E00018019D8A46CD0010E4A248C
:101470003D6E3E6A000E3E223F6A000E3F22406AE9
:10148000000E40224950316E306A30C032F031C017
:1014900033F0000E33BEFF0E346E356E32503D1207
:1014A00033503E1234503F123550401248C030F095
:1014B0003F0E301630C031F0326A336A346A32C0BF
:1014C00034F031C033F0326A316A31503D1232505B
:1014D0003E1233503F12345040123DC009F03EC01E
:1014E0000AF03FC00BF040C00CF0BEEC15F009C094
:1014F00012F00AC013F00BC014F0380E156E060E71
:10150000166E3F0E176E8EEC11F012C098F013C0DD
:1015100099F014C09AF0000E156E000E166E450E6E
:10152000176E98C012F099C013F09AC014F08EECA8
:1015300011F012C021F013C022F014C023F014ECFB
:1015400011F0BED047C030F0030E301630C031F07D
:10155000326A336A346A040ED89031363236333602
:101560003436E82EF9D731C057F032C058F033C0C6
:1015700059F034C05AF04850306E316AD890303645
:101580003136D8903036313630C032F031C033F099
:10159000000E33BEFF0E346E356E3250571233508C
:1015A00058123450591235505A1249C030F0D89060
:1015B0003032D8903032300E3016010E3024316E79
:1015C000326A000E3222336A000E3322346A000E71
:1015D000342231505712325058123350591234506D
:1015E0005A124AC030F0030E3016316A4BAE01D0A9
:1015F000312A31303034326E020E322657C033F089
:1016000058C034F059C035F05AC036F0322A05D0EF
:10161000D8903336343635363636322EF9D733C095
:1016200057F034C058F035C059F036C05AF046C0B3
:1016300030F00F0E301657C031F058C032F059C09C
:1016400033F05AC034F0302A05D0D89031363236D3
:1016500033363436302EF9D731C057F032C058F017
:1016600033C059F034C05AF057C009F058C00AF0DE
:1016700059C00BF05AC00CF0BEEC15F009C098F040
:101680000AC099F00BC09AF092C009F093C00AF01A
:101690007BEC16F009C00FF00AC010F00BC011F07F
:1016A00098C00CF099C00DF09AC00EF008EC12F042
:1016B0000CC021F00DC022F00EC023F014EC11F08C
:1016C00021C094F022C095F023C096F024C097F07A
:1016D000000E046E000E056E000E066E000E076E04
:1016E000430EF66E100EF76E0800F550A9EC14F0DC
:1016F0008D94D0EC16F05B6E300EF66E100EF76E19
:101700000800F5505B62F5D7000E566E0F0E56645A
:1017100001D00DD05650010D410EF324D96E000EAC
:10172000F420DA6ED0EC16F0DF6E562AEFD7D0EC4C
:1017300016F0D0EC16F08D8441C082F04250306E2D
:1017400043500001836F30C084F044C089F045C02D
:1017500030F0316A326A336A30C033F0326A316A4B
:10176000306A30C085F031C086F032C087F033C0B7
:1017700088F046C030F0316A326A336A31C033F0E3
:1017800030C032F0316A306A305000018513315078
:101790000001861332500001871333500001881373
:1017A00047C030F0316A326A336A32C033F031C038
:1017B00032F030C031F0306A3050000185133150C2
:1017C0000001861332500001871333500001881343
:1017D00048500001851349C08AF04AC030F0316A90
:1017E000326A336A30C033F0326A316A306A30C0EC
:1017F0008BF031C08CF032C08DF033C08EF04BC016
:1018000030F0316A326A336A31C033F030C032F0BE
:10181000316A306A305000018B13315000018C1353
:10182000325000018D13335000018E134CC030F044
:10183000316A326A336A32C033F031C032F030C0BC
:1018400031F0306A305000018B13315000018C139D
:10185000325000018D13335000018E134D500001A2
:101860008B134E500F0B306E4F5000018F6F30C0F6
:1018700090F05050FE0B0001916F8D84C69A3BC0D2
:10188000D3FF3CC09BFF04D0420EE82EFED700D011
:10189000D3A4FAD7100E09EC16F0010E0001A46FC4
:1018A000000E0001A06F000EA16F000EA26F000ECF
:1018B000A36F000E00019C6F000E9D6F000E9E6FC7
:1018C000000E9F6F010E0001AD6F000E0001A96FA9
:1018D000000EAA6F000EAB6F000EAC6F000E000181
:1018E000A56F000EA66F000EA76F000EA86F010E69
:1018F00000019B6F1200000E8C6E000E956EE8ECDE
:1019000014F00C0EC5EC16F074EC08F000019B51BD
:10191000D8B407D07B0E196E100E1A6E98EC0FF02B
:1019200007D0A30E196E100E1A6E98EC0FF0FFD7A9
:10193000330E5D6EBB0E5C6EE00EE82EFED75C2EA5
:10194000FCD75D2EFAD7C68A8D94000E0B6E000E62
:101950000C6E000E0D6E000E0E6E000E0F6E000E61
:10196000106E000E116E000E126EE4EC13F0D0EC4F
:1019700016F0FF0AD8A4FBD7000E6F6E000E706E33
:10198000000E716E000E726E7250711013E1020E35
:10199000705CD8B00FD0BE0E6F24D96E020E7020CE
:1019A000DA6E6FC0DFFF010E6F26000E702271220B
:1019B0007222EAD7000E0B6E000E0C6E000E0D6E3A
:1019C000000E0E6EBE0E0F6E020E106E7BEC12F04D
:1019D0000009D8B4EFD7010EC5EC16F0410E5C6ECD
:1019E000EE0EE82EFED75C2EFCD700D0960E196EB8
:1019F000100E1A6E98EC0FF04A0EF66E100EF76E7F
:101A00000800F5508009C5EC16F06C0E196E100E2A
:101A10001A6E98EC0FF0330E5D6EBB0E5C6EE00E2E
:101A2000E82EFED75C2EFCD75D2EFAD7010E6E6E27
:101A3000030E6D6EE80E6C6E000E6F6E000E706E13
:101A4000000E716E000E726E7250711013E1020E74
:101A5000705CD8B00FD0BE0E6F24D96E020E70200D
:101A6000DA6E340EDF6E010E6F26000E70227122C8
:101A70007222EAD7010EC5EC16F0410E5C6EEE0E36
:101A8000E82EFED75C2EFCD700D0890E196E100E02
:101A90001A6E98EC0FF06E50106E116A126A136A8B
:101AA0006CC014F06DC015F0166A176A6AEC14F079
:101AB000000E6F6E000E706E000E716E000E726E74
:101AC0003ED0BE0E0B6E020E0C6E98EC10F00009AC
:101AD000D8B445D06FC00EF070C00FF071C010F0D8
:101AE00072C011F0640E126E000E136E000E146EB2
:101AF000000E156E8BEC15F00E500F10101011101B
:101B0000D8A417D04A0EF66E100EF76E0800F550E6
:101B10008009C5EC16F0C30E196E100E1A6E6FC058
:101B20001BF070C01CF071C01DF072C01EF098EC6C
:101B30000FF0010E6F26000E7022712272226C507F
:101B40005C6E6D505D6E5E6A5F6A5C506F5C5D508E
:101B500070585E5071585F507258D8A0B2D725ECBB
:101B600016F08D84C69A010EC5EC16F0410E5C6E1F
:101B7000EE0EE82EFED75C2EFCD700D0AF0E196E0D
:101B8000100E1A6E98EC0FF04A0EF66E100EF76EED
:101B90000800F5508009C5EC16F0D60E196E100E2F
:101BA0001A6E6FC01BF070C01CF071C01DF072C0C7
:101BB0001EF098EC0FF0330E5D6EBB0E5C6EE00E07
:101BC000E82EFED75C2EFCD75D2EFAD7C68A8D9400
:101BD000010EC5EC16F0410E5C6EEE0EE82EFED73F
:101BE0005C2EFCD700D04B0E196E100E1A6E98ECBE
:101BF0000FF0330E5D6EBB0E5C6EE00EE82EFED76E
:101C00005C2EFCD75D2EFAD7000E0B6E000E0C6E0C
:101C1000000E0D6E000E0E6EBE0E0F6E000E106EDC
:101C2000EAEC12F00009D8B41ED04A0EF66E100E7F
:101C3000F76E0800F5508009C5EC16F0DF0E196E3E
:101C4000100E1A6EBE0E0E6E000E0F6E020E116E8C
:101C5000000E106E56EC15F05C6E5C501B6E1C6A2C
:101C600098EC0FF00FD04A0EF66E100EF76E0800CB
:101C7000F5508009C5EC16F0CD0E196E100E1A6ED7
:101C800098EC0FF0330E5D6EBB0E5C6EE00EE82E2E
:101C9000FED75C2EFCD75D2EFAD7000E6F6E000EBD
:101CA000706E000E716E000E726E7250711013E144
:101CB000020E705CD8B00FD0BE0E6F24D96E000E2D
:101CC0007020DA6E000EDF6E010E6F26000E70229D
:101CD00071227222EAD7000E686E000E696E000E45
:101CE0006A6E000E6B6EA0C00BF0A1C00CF0A2C01B
:101CF0000DF0A3C00EF020EC15F0010EC5EC16F0AF
:101D0000410E5C6EEE0EE82EFED75C2EFCD700D0A6
:101D10005C0E196E100E1A6E98EC0FF04A0EF66EED
:101D2000100EF76E0800F5508009C5EC16F0BD0ED8
:101D3000196E100E1A6E6EC01BF01C6A6E506C2469
:101D40005C6E000E6D205D6EFF0E5C241D6EFF0E3E
:101D50005D201E6E98EC0FF0000E6F6E000E706E20
:101D6000000E716E000E726E41D0BE0E046E000E3B
:101D7000056E9FEC13F0BE0E0E6E000E0F6E020E7F
:101D8000116E000E106E56EC15F05C6E5C506826FD
:101D9000000E69226A226B226F507010711072104F
:101DA000D8B41ED06FC00EF070C00FF071C010F02C
:101DB00072C011F0FA0E126E000E136E000E146E49
:101DC000000E156E8BEC15F00E500F101010111048
:101DD000D8A406D0940E196E100E1A6E98EC0FF05F
:101DE000010E6F26000E702271227222A0C05CF0DC
:101DF000A1C05DF0A2C05EF0A3C05FF05C1E5D1EDE
:101E00005E1E5F1E5C2A000E5D225E225F220001C4
:101E10009C515C24606E00019D515D20616E00014B
:101E20009E515E20626E00019F515F20636E010E25
:101E30006024646E000E6120656E000E6220666E86
:101E4000000E6320676E64506F5C6550705866507A
:101E5000715867507258D8A088D767EC16F068C0E0
:101E600001F069C002F06AC003F06BC004F0A9C0C1
:101E70005CF0AAC05DF0ABC05EF0ACC05FF05C1E71
:101E80005D1E5E1E5F1E5C2A000E5D225E225F22CA
:101E90000001A5515C24056E0001A6515D20066E6F
:101EA0000001A7515E20076E0001A8515F20086E57
:101EB00029EC14F001C068F002C069F003C06AF0B8
:101EC00004C06BF08D84C69A010EC5EC16F0410E6D
:101ED0005C6EEE0EE82EFED75C2EFCD700D0B90E5D
:101EE000196E100E1A6E6EC01BF01C6A6E506C24B8
:101EF0005C6E000E6D205D6EFF0E5C241D6EFF0E8D
:101F00005D201E6E98EC0FF04A0EF66E100EF76E06
:101F10000800F5508009C5EC16F0DF0E196E100EA2
:101F20001A6E68C01BF069C01CF098EC0FF0FFD768
:101F30001B0E276E000E286EEED0250E2A18D8B480
:101F400004D02A50BFEC16F0E6D0000E296E04D063
:101F5000298802D0298C1AD019C0F6FF1AC0F7FFC1
:101F6000194A1A2A0800F5CF2AF02A50000AD8B4D4
:101F70001200640AD8B40AD00D0AD8B407D0050AF2
:101F8000D8B4E6D7190AD8B4E5D7C5D029BC2ED025
:101F900029A80ED027C0D9FF28C0DAFFDECF23F052
:101FA000DECF24F0DECF25F0DECF26F0040E0ED0FB
:101FB00027C0D9FF28C0DAFFDECF23F0DDCF24F021
:101FC000000E24BEFF0E256E266E020E2726000E82
:101FD000282226AE2DD0030E2912261E251E241ED1
:101FE000236C000E24222522262222D029A80ED0DE
:101FF00027C0D9FF28C0DAFFDECF23F0DECF24F0E0
:10200000DECF25F0DECF26F0040E0FD027C0D9FF9B
:1020100028C0DAFFDECF1FF0DDCF20F01FC023F095
:1020200020C024F0256A266A020E2726000E2822E8
:10203000010E2A6E0A0E2A18D8B418D02A50040DA0
:10204000010EF324F66E100EF420F76E0900F55021
:10205000235C0900F55024580900F5502558090063
:10206000F5502658D8A002D02A2AE4D729C01FF05C
:10207000030E1F16D8B403D02D0EBFEC16F02A5055
:10208000216E226A21BE22063ED021C01FF022C04E
:1020900020F0D8901F362036D8901F362036010EFB
:1020A0001F24F66E100E2020F76E0900F5CF05F004
:1020B0000900F5CF06F00900F5CF07F00A00F5CFCB
:1020C00008F023C001F024C002F025C003F026C0B0
:1020D00004F029EC14F001C00EF002C00FF003C0B0
:1020E00010F004C011F00A0E126E000E136E000EF6
:1020F000146E000E156E8BEC15F00E50300F2A6E1C
:102100002A50BFEC16F02106D8A022062128BDE1F6
:102110002228D8A4BAD719C0F6FF1AC0F7FF194A67
:102120001A2A0800F5CF2AF02A50D8B4120005D791
:102130008D94D0EC16F0FF0AD8A4FBD72F0EF66EC4
:10214000100EF76E0800F550CBEC16F0000E0D6E79
:10215000000E0F6E000E0E6E020E0F5CD8B00DD08A
:102160000E500B24D96E0F500C20DA6EDF508DEC20
:1021700016F00D6E0E4A0F2AEFD7020E9FEC16F0E6
:10218000D0EC16F01F0B0D6E1F0E0D18D8B4F8D73B
:102190008D843FD00001A451D8B40CD0A0C09CF0D5
:1021A000A1C09DF0A2C09EF0A3C09FF0000E000150
:1021B000A46F07D0010E00019C27000E9D239E23D3
:1021C0009F23010E1200000E046E000E056E000E1D
:1021D000066E000E076E420EF66E100EF76E0800C9
:1021E000F550A9EC14F0000E1200000E046E000E63
:1021F000056E000E066E000E076E420EF66E100E95
:10220000F76E0800F550A9EC14F0000E1200000E55
:1022100012000D50050AD8B4BDD70E0AD8B4D3D7D2
:10222000060AD8B4E2D7F3D723C025F0266A276A76
:102230002234253601E3268025502F6E2F50D8A456
:1022400009D0000E216E000E226E000E236E000ECD
:10225000246E1200170E256E21C026F022C027F032
:1022600023C028F02528296E04D0D89028322732A0
:102270002632292EFAD726502A6E228EFF0E2116DC
:10228000FF0E2216000E231621502B6E22502C6EAC
:1022900023502D6E2E6A8E0E2F5E2FAE16D02F502D
:1022A000800A8F0FD8B009D0000E216E000E226E6A
:1022B000000E236E000E246E1200D8902E322D32A6
:1022C0002C322B322F3EF9D715D0170E2F640FD09A
:1022D000000E216E000E226E000E236E000E246E84
:1022E0001200D8902B362C362D362E362F062F5036
:1022F000D8A4F7D72A50D8B408D02E1E2D1E2C1ED5
:102300002B6C000E2C222D222E222BC021F02CC053
:1023100022F02DC023F02EC024F0120014C018F0BB
:10232000196A1A6A1334183601E3198018501B6EA3
:102330001B50D8A407D0000E126E000E136E000EB4
:10234000146E120017C018F0196A1A6A163418367B
:1023500001E319801850206E2050D8A407D0000E39
:10236000126E000E136E000E146E120020507B0FC2
:102370001B2614C020F01750201A800E2016138E32
:10238000168EFF0E1516FF0E1616000E1716000EEF
:102390001C6E000E1D6E000E1E6E070E1F6E12A02C
:1023A00006D015501C2616501D2217501E22D890FC
:1023B000143213321232D8901536163617361F2EB5
:1023C000EED7090E1F6E12A006D015501C2616500F
:1023D0001D2217501E22D890143213321232D89078
:1023E0001E321D321C321F2EEED71CC001F01DC044
:1023F00002F01EC003F01BC004F020C005F048EC42
:1024000013F001C012F002C013F003C014F0120068
:102410000EC012F0136A146A0D34123601E31380F1
:102420001250196E1950D8A407D0000E0C6E000E71
:102430000D6E000E0E6E120011C012F0136A146AB7
:102440001034123601E3138012501A6E1A50D8A4B9
:1024500007D0000E0C6E000E0D6E000E0E6E1200F8
:10246000000E166E000E176E000E186E1A50890FB1
:10247000195E0EC01AF011501A1A800E1A160D8E1F
:10248000FF0E0C16FF0E0D16000E0E16108EFF0E10
:102490000F16FF0E1016000E1116180E156ED8909E
:1024A0001636173618360F500C5C10500D58115058
:1024B0000E58D8A007D00F500C5E10500D5A115076
:1024C0000E5A1680D8900C360D360E36152EE7D7DC
:1024D00016C001F017C002F018C003F019C004F0D4
:1024E0001AC005F048EC13F001C00CF002C00DF06A
:1024F00003C00EF0120000018151D8A408D0090ECB
:10250000D8900B360C360D360E36E82EF9D70BC0A8
:1025100004F00CC005F00DC006F00EC007F03D0E33
:10252000F66E100EF76E0800F550A9EC14F0116E5F
:10253000330EF66E100EF76E0800F5501118D8A481
:10254000E6D78D94300EF66E100EF76E0800F5503B
:10255000CBEC16F0000E146E000E136E020E145C1F
:10256000D8B00CD013500F24D96E14501020DA6E4E
:10257000DF508DEC16F0134A142AF0D7020E9FECB0
:1025800016F0D0EC16F0116ED89011300F0B126EC1
:102590008D8415D00BC09CF00CC09DF00DC09EF03A
:1025A0000EC09FF0D0EC16F00009D8B4FBD7010E96
:1025B0001200000E1200000E1200000E1200125047
:1025C000020AD8B4E7D7070AD8B4F3D7030AD8B4B5
:1025D000F2D7F3D700018151D8A408D0090ED890C2
:1025E0000B360C360D360E36E82EF9D70BC004F03C
:1025F0000CC005F00DC006F00EC007F03F0EF66EE1
:10260000100EF76E0800F550A9EC14F0146E14C00B
:1026100011F00F0E1116D8B402D0000E1200330EB6
:10262000F66E100EF76E0800F5501462DFD78D9429
:10263000D0EC16F0146E300EF66E100EF76E080029
:10264000F5501462F5D7000E136E000E126E020ED6
:10265000135CD8B00CD012500F24D96E1350102038
:10266000DA6ED0EC16F0DF6E124A132AF0D7FF0EA6
:10267000CBEC16F0FF0ECBEC16F08D840BC0A5F062
:102680000CC0A6F00DC0A7F00EC0A8F0010E1200FD
:102690000450D8B405D0015002100310D8A40CD0B7
:1026A000000E016E000E026E000E036E1200042A70
:1026B000D890033202320132000E0114066E000E71
:1026C0000214076EFE0E0314086E06500710081061
:1026D000D8B40CD0ECD7042A010E0126000E022239
:1026E000000E0322D890033202320132000E011490
:1026F000066E000E0214076EFF0E0314086E0650DD
:1027000007100810D8B406D0E6D70406D8900136D2
:102710000236033602BE03D0020E0460F6D704A0D0
:10272000029ED8900432045003120550D8A4038EA0
:1027300001C001F002C002F003C003F01200D0ECAF
:1027400016F00009D8B4FBD78D94D0EC16F0066EC5
:10275000300EF66E100EF76E0800F5500618D8A46D
:10276000F4D7000E086E000E076E020E085CD8B09B
:102770000CD007500424D96E08500520DA6ED0EC36
:1027800016F0DF6E074A082AF0D7FF0ECBEC16F0E2
:10279000FF0ECBEC16F08D840001AD51D8B40CD0F7
:1027A000A9C0A5F0AAC0A6F0ABC0A7F0ACC0A8F025
:1027B000000E0001AD6F1200010E0001A527000EF2
:1027C000A623A723A823120000018151D8A410D06A
:1027D000090ED8900B360C360D360E36E82EF9D78A
:1027E000090ED8900F36103611361236E82EF9D76A
:1027F0000BC004F00CC005F00DC006F00EC007F0D1
:102800003B0EF66E100EF76E0800F550A9EC14F0B2
:102810000FC004F010C005F011C006F012C007F0A0
:102820003A0EF66E100EF76E0800F550A9EC14F093
:10283000000E046E000E056E000E066E000E076E92
:10284000390EF66E100EF76E0800F550A9EC14F074
:102850001200000E096E000E0A6E000E0B6E000EC6
:102860000C6E0550061007100810D8B42AD0010EBF
:102870000D6E06D0D89005360636073608360D2A76
:1028800008AEF8D7D89009360A360B360C36055004
:10289000015C065002580750035808500458D8A04D
:1028A00009D00550015E0650025A0750035A0850DD
:1028B000045A0980D89008320732063205320D2EAC
:1028C000E1D709C001F00AC002F00BC003F00CC050
:1028D00004F0120000018151D8A408D0090ED8904C
:1028E0001036113612361336E82EF9D714C00BF015
:1028F00015C00CF016C00DF017C00EF0350EF66EB8
:10290000100EF76E0800F550ECEC15F010C004F056
:1029100011C005F012C006F013C007F03C0EF66EB1
:10292000100EF76E0800F550A9EC14F0186E330E77
:10293000F66E100EF76E0800F5501818D8A4E6D7FA
:1029400010C0A0F011C0A1F012C0A2F013C0A3F0FB
:102950001200096E8D94D0EC16F0FF0AD8A4FBD7B4
:1029600009504009CBEC16F00750CBEC16F006509E
:10297000CBEC16F00550CBEC16F00450CBEC16F077
:10298000460EF66E100EF76E0800F550096209D07B
:10299000450EF66E100EF76E0800F550CBEC16F0F3
:1029A00008D0480EF66E100EF76E0800F550CBEC0E
:1029B00016F0000E086ED0EC16F00A6E082A080E0B
:1029C000086003D00A28D8B4F6D78D840A501200C4
:1029D000C30E056ECD0EE82EFED7052EFCD700F0F7
:1029E0008C94030EABEC16F0410E056EEE0EE82E45
:1029F000FED7052EFCD700D0030EABEC16F0D60E9A
:102A000000D000D0E82EFCD700D0320EB6EC16F085
:102A1000280EB6EC16F0080EB6EC16F0010EB6EC69
:102A200016F0410E056EEE0EE82EFED7052EFCD7F1
:102A300000D0060EB6EC16F00F0EC5EC16F0120024
:102A400000018151D8A408D0090ED8900B360C365D
:102A50000D360E36E82EF9D7000E106E0BC004F0BE
:102A60000CC005F00DC006F00EC007F03E0EF66E6D
:102A7000100EF76E0800F550A9EC14F0106E10C09F
:102A80000FF00F0E0F16D8A41200330EF66E100EB4
:102A9000F76E0800F5501062E1D70BC0A9F00CC02A
:102AA000AAF00DC0ABF00EC0ACF01200000E186E14
:102AB000000E176E000E136E000E146E000E156ED3
:102AC000000E166E10D017500E24D96E18500F201D
:102AD000DA6EDF50126E12501326000E14221522E9
:102AE0001622174A182A1050175C11501858D8A0EF
:102AF000EAD713C001F014C002F015C003F016C0ED
:102B000004F010C005F011C006F0076A086A29EC4D
:102B100014F0015012001250131014101510D8B4F4
:102B200024D0010E166E06D0D89012361336143605
:102B30001536162A15AEF8D712500E5C13500F58E2
:102B40001450105815501158D8A008D012500E5ECD
:102B500013500F5A1450105A1550115AD89015325C
:102B6000143213321232162EE7D70EC00EF00FC0F9
:102B70000FF010C010F011C011F012008E0E116E87
:102B800006D0D8900C320B320A320932112A000ECC
:102B900009140D6E000E0A140E6E000E0B140F6E4B
:102BA000FF0E0C14106E0D500E100F101010D8A444
:102BB000E8D709C001F00AC002F00BC003F011C051
:102BC00004F0000E056E48EC13F001C009F002C0DD
:102BD0000AF003C00BF012000F6E000E046E000E20
:102BE000056E000E066E000E076E380EF66E100EA5
:102BF000F76E0800F550A9EC14F00BC004F00CC0FF
:102C000005F00DC006F00EC007F00F50A9EC14F04F
:102C10001200016EC69A000EC76E07D0100E03D0C8
:102C2000120E01D0110EC66E0BD00150040AD8B49A
:102C3000F5D7140AD8B4F6D7500AD8B4F1D7F2D7DA
:102C4000949A94889496C68A12008D94D0EC16F0CB
:102C5000FF0AD8A4FBD72E0EF66E100EF76E0800F2
:102C6000F550CBEC16F0D0EC16F00009D8B4FBD739
:102C70008D84010E0001A46F120000EEBEF014EE70
:102C800000F0EE6AE550E150FCE1E250FAE100EEBE
:102C900080F03E0EEE6AE806FDE1000EF86E0001DF
:102CA0007BEF0CF0000EF2BE010E016EF29E8C86E0
:102CB000530EE82EFED700F08C96C80E00D0E82EFA
:102CC000FDD701B002D0F29E01D0F28E1200000EAC
:102CD000046E000E056E000E066E000E076E420EAC
:102CE000F66E100EF76E0800F550A9EC14F0010E08
:102CF0000001AD6F120009C001F00AC002F0036AC2
:102D00008E0E046E000E056E48EC13F001C009F043
:102D100002C00AF003C00BF01200026E02C0C9FF2D
:102D20009EB602D0010E01D0000E016EC7B002D0D7
:102D3000010E01D0000E0110F3E1C9501200046E23
:102D400004C005F004D0FF0ECBEC16F005060550CC
:102D5000D8B41200F8D7026E8C500F0B8C6E02386C
:102D6000F00B8C108C6E52EC16F01200036E0338D0
:102D70000F0BABEC16F00350ABEC16F01200046E28
:102D80008C840450B6EC16F01200046E8C9404503F
:102D9000B6EC16F01200036E03508DEC16F0120024
:082DA000FF0E8DEC16F012008D
:020000040020DA
:08000000FFFFFFFFFFFFFFFF00
:020000040030CA
:0E000000FF061F1EFF8381FF0F400FE00F4021
:00000001FF
