:040000007AEF6AF039
:10D4BA00FF0E96EC6AF01200036E035096EC6AF0C7
:10D4CA001200036E8C94035019EC6CF0C80E00D055
:10D4DA00E82EFDD71200036E8C84035019EC6CF011
:10D4EA00C80E00D0E82EFDD7120000EE80F03E0EE6
:10D4FA00EE6AE806FDE17C6A7B6A000EF86E0001BE
:10D50A0047EF74F0036E000E026E3A0E036005D008
:10D51A002F0E036402D0010E026E02C001F0013028
:10D52A001200026E02C0C9FF9EB602D0010E01D0DF
:10D53A00000E016EC7B002D0010E01D0000E01101C
:10D54A00F3E1C950120009C001F00AC002F0036AEF
:10D55A008E0E046E000E056E6BEC6DF001C009F0C4
:10D56A0002C00AF003C00BF01200015002100310AF
:10D57A00D8B406D0000E011A000E021A800E031A41
:10D58A0001C001F002C002F003C003F012000F5004
:10D59A001102F3CF13F0F4CF14F00F501202F3502C
:10D5AA00142610501102F350142613C00FF014C0A1
:10D5BA0010F01200016EC69A000EC76E07D0110E47
:10D5CA0003D0120E01D0100EC66E0BD00150040A01
:10D5DA00D8B4F9D7140AD8B4F2D7500AD8B4F1D7C4
:10D5EA00F2D7949A94889496C68A1200116E000E05
:10D5FA00046E000E056E000E066E000E076EF90E22
:10D60A00F66EFE0EF76E0800F550DBEC6CF00DC0FE
:10D61A0004F00EC005F00FC006F010C007F011505C
:10D62A00DBEC6CF012003D503E103F10D8B406D02F
:10D63A00000E3D1A000E3E1A800E3F1A3AC02EF016
:10D64A003BC02FF03CC030F03DC031F03EC032F05C
:10D65A003FC033F056EC70F02EC03AF02FC03BF0CA
:10D66A0030C03CF01200000E896E000E8A6E000E69
:10D67A008B6E000E8C6E000E8D6E000E926EF20E88
:10D68A00936E800E946E010E956E040E966EF18E58
:10D69A00000EC26E0F0EC16E000EB56EB496B10EBC
:10D6AA00C06EF096F28CF29E1200C30E046ECD0E7E
:10D6BA00E82EFED7042EFCD700F0330E66EC6AF093
:10D6CA00320E66EC6AF0280E66EC6AF00F0E66EC13
:10D6DA006AF0060E66EC6AF0010E66EC6AF0C30E9A
:10D6EA00046ECD0EE82EFED7042EFCD700F00F0EE6
:10D6FA0066EC6AF012008E0E116E06D0D8900C32CB
:10D70A000B320A320932112A000E09140D6E000E6C
:10D71A000A140E6E000E0B140F6EFF0E0C14106E10
:10D72A000D500E100F101010D8A4E8D709C001F040
:10D73A000AC002F00BC003F011C004F0000E056E1F
:10D74A006BEC6DF001C009F002C00AF003C00BF0E7
:10D75A0012001250131014101510D8B424D0010E50
:10D76A00166E06D0D8901236133614361536162A87
:10D77A0015AEF8D712500E5C13500F5814501058AB
:10D78A0015501158D8A008D012500E5E13500F5AD7
:10D79A001450105A1550115AD890153214321332A7
:10D7AA001232162EE7D70EC00EF00FC00FF010C0BF
:10D7BA0010F011C011F01200000E066E02AE06D073
:10D7CA00016C021ED8B0022A010E066E04AE04D005
:10D7DA00036C041ED8B0042A03500410D8B418D01D
:10D7EA00010E056E04D0D89003360436052A04AE1D
:10D7FA00FAD70350015C04500258D8A004D0035051
:10D80A00015E0450025AD89004320332052EF1D731
:10D81A000650D8B404D0016C021ED8B0022A01C046
:10D82A0001F002C002F01200026E0250F00B016E0B
:10D83A008C500F0B8C6E01508C108C6E000EF2BE49
:10D84A00010E7B6EF29E8C86530EE82EFED700F0F8
:10D85A008C96C80E00D0E82EFDD77BB002D0F29E7F
:10D86A0001D0F28E0238F00B026E0250F00B016EFC
:10D87A008C500F0B8C6E01508C108C6E000EF2BE09
:10D88A00010E7B6EF29E8C86530EE82EFED700F0B8
:10D89A008C96C80E00D0E82EFDD77BB002D0F29E3F
:10D8AA0001D0F28E1200000E096E000E0A6E000EF2
:10D8BA000B6E000E0C6E0550061007100810D8B437
:10D8CA002AD0010E0D6E06D0D890053606360736D8
:10D8DA0008360D2A08AEF8D7D89009360A360B361C
:10D8EA000C360550015C0650025807500358085080
:10D8FA000458D8A009D00550015E0650025A0750B4
:10D90A00035A0850045A0980D8900832073206325E
:10D91A0005320D2EE1D709C001F00AC002F00BC092
:10D92A0003F00CC004F01200000E0C6E0AAE06D012
:10D93A00096C0A1ED8B00A2A010E0C6E08AE06D06F
:10D94A00076C081ED8B0082A010E0C1A000E0E6EBB
:10D95A00000E0D6E09500A10D8B41CD0010E0B6EC1
:10D96A0004D0D89009360A360B2A0AAEFAD7D890CC
:10D97A000D360E360950075C0A500858D8A005D053
:10D98A000950075E0A50085A0D80D8900A320932A7
:10D99A000B2EEDD70C50D8B404D00D6C0E1ED8B097
:10D9AA000E2A0DC007F00EC008F012000A6E000E13
:10D9BA000C6E8D945DEC6AF0FF0AD8A4FBD70A506E
:10D9CA00400961EC6AF0070E086E000E096E0BD072
:10D9DA0008C0D9FF09C0DAFFDF5061EC6AF0080617
:10D9EA00D8A009060C2A030E0C64F2D7070EF66EAD
:10D9FA00FF0EF76E0800F5500A6209D0060EF66EA1
:10DA0A00FF0EF76E0800F55061EC6AF008D0090EB7
:10DA1A00F66EFF0EF76E0800F55061EC6AF0000E24
:10DA2A000C6E5DEC6AF00B6E0C2A080E0C6003D0CB
:10DA3A000B28D8B4F6D78D840B50120003AE16D03B
:10DA4A0001C007F002C008F003C009F0071E081E53
:10DA5A00091E072A000E08220922000E0724016E59
:10DA6A00000E0820026E800E0920036E06AE16D044
:10DA7A0004C007F005C008F006C009F0071E081E1A
:10DA8A00091E072A000E08220922000E0724046E26
:10DA9A00000E0820056E800E0920066E000E011A7F
:10DAAA00000E021A800E031A000E041A000E051A3E
:10DABA00800E061A0450015C05500258065003589D
:10DACA00D8B002D0D8901200D88012000450D8B42E
:10DADA0005D0015002100310D8A40CD0000E016E1C
:10DAEA00000E026E000E036E1200042AD890033252
:10DAFA0002320132000E0114066E000E0214076E85
:10DB0A00FE0E0314086E065007100810D8B40CD085
:10DB1A00ECD7042A010E0126000E0222000E03226F
:10DB2A00D890033202320132000E0114066E000E42
:10DB3A000214076EFF0E0314086E06500710081031
:10DB4A00D8B406D0E6D70406D89001360236033692
:10DB5A0002BE03D0020E0460F6D704A0029ED8903B
:10DB6A000432045003120550D8A4038E01C001F0F8
:10DB7A0002C002F003C003F012000EC012F0136AD2
:10DB8A00146A0D34123601E313801250196E1950BB
:10DB9A00D8A407D0000E0C6E000E0D6E000E0E6E8D
:10DBAA00120011C012F0136A146A1034123601E31B
:10DBBA00138012501A6E1A50D8A407D0000E0C6E99
:10DBCA00000E0D6E000E0E6E1200000E166E000E86
:10DBDA00176E000E186E1A50890F195E0EC01AF0D1
:10DBEA0011501A1A800E1A160D8EFF0E0C16FF0E01
:10DBFA000D16000E0E16108EFF0E0F16FF0E1016C3
:10DC0A00000E1116180E156ED890163617361836DD
:10DC1A000F500C5C10500D5811500E58D8A007D058
:10DC2A000F500C5E10500D5A11500E5A1680D89093
:10DC3A000C360D360E36152EE7D716C001F017C072
:10DC4A0002F018C003F019C004F01AC005F06BEC1A
:10DC5A006DF001C00CF002C00DF003C00EF012000E
:10DC6A0017C01BF01C6A1D6A16341B3601E31C80A0
:10DC7A001B501E6E1E50D8A407D0000E156E000E43
:10DC8A00166E000E176E12001AC01BF01C6A1D6A6F
:10DC9A0019341B3601E31C801B50236E2350D8A471
:10DCAA0007D0000E156E000E166E000E176E1200CB
:10DCBA0023507B0F1E2617C023F01A50231A800EFA
:10DCCA002316168E198EFF0E1816FF0E1916000E41
:10DCDA001A16000E1F6E000E206E000E216E070E21
:10DCEA00226E15A006D018501F26195020221A504D
:10DCFA002122D890173216321532D8901836193692
:10DD0A001A36222EEED7090E226E15A006D018500A
:10DD1A001F26195020221A502122D8901732163263
:10DD2A001532D890213220321F32222EEED71FC050
:10DD3A0001F020C002F021C003F01EC004F023C08D
:10DD4A0005F06BEC6DF001C015F002C016F003C0CF
:10DD5A0017F012002DC02FF0306A316A2C342F369A
:10DD6A0001E330802F50396E3950D8A409D0000E03
:10DD7A002B6E000E2C6E000E2D6E000E2E6E1200F3
:10DD8A00170E2F6E2BC030F02CC031F02DC032F0A0
:10DD9A002F28336E04D0D890323231323032332EBB
:10DDAA00FAD73050346E2C8EFF0E2B16FF0E2C161F
:10DDBA00000E2D162B50356E2C50366E2D50376EA8
:10DDCA00386A8E0E395E39AE16D03950800A8F0FF6
:10DDDA00D8B009D0000E2B6E000E2C6E000E2D6EE0
:10DDEA00000E2E6E1200D890383237323632353263
:10DDFA00393EF9D715D0170E39640FD0000E2B6EA5
:10DE0A00000E2C6E000E2D6E000E2E6E1200D89093
:10DE1A00353636363736383639063950D8A4F7D734
:10DE2A003450D8B408D0381E371E361E356C000E52
:10DE3A0036223722382235C02BF036C02CF037C0B4
:10DE4A002DF038C02EF01200033404340C6E0C503E
:10DE5A00D8A409D0000E016E000E026E000E036EE9
:10DE6A00000E046E1200063407340B6E0B50D8A451
:10DE7A0009D0000E016E000E026E000E036E000E37
:10DE8A00046E1200038EFF0E0116FF0E0216FF0E1D
:10DE9A000316000E0416068EFF0E0416FF0E051654
:10DEAA00FF0E0616000E0716000E076E000E086E0D
:10DEBA00000E096E000E0A6E7F0E0C5E0B50A00F4C
:10DECA000C5E200E0B6ED8900736083609360A36D5
:10DEDA000450015C05500258065003580750045874
:10DEEA00D8A009D00450015E0550025A0650035AC0
:10DEFA000750045A0780D890013602360336043692
:10DF0A000B2EE1D70CAE16D00C50800A9F0FD8B05A
:10DF1A0009D0000E016E000E026E000E036E000E96
:10DF2A00046E1200D8900A320932083207320C3EC7
:10DF3A00F9D715D01F0E0C640FD0000E016E000E1B
:10DF4A00026E000E036E000E046E1200D8900736A1
:10DF5A00083609360A360C060C50D8A4F7D707C07B
:10DF6A0001F008C002F009C003F00AC004F0120070
:10DF7A0003C007F0086A096A0234073601E3088019
:10DF8A0007500F6E0F50D8A409D0000E016E000E74
:10DF9A00026E000E036E000E046E120006C007F039
:10DFAA00086A096A0534073601E3088007500E6ECD
:10DFBA000E50D8A409D0000E016E000E026E000E9B
:10DFCA00036E000E046E1200028EFF0E0116FF0E83
:10DFDA000216000E0316058EFF0E0416FF0E051616
:10DFEA00000E0616000E0A6E000E0B6E000E0C6E68
:10DFFA00000E0D6E7F0E0F5E0E50980F0F5E180EFC
:10E00A000E6ED8900A360B360C360D360450015C6B
:10E01A000550025806500358D8A007D00450015E94
:10E02A000550025A0650035A0A80D8900136023621
:10E03A0003360E2EE6D70FAE16D00F50800A970F72
:10E04A00D8B009D0000E016E000E026E000E036EEB
:10E05A00000E046E1200D8900D320C320B320A32C6
:10E06A000F3EF9D715D0170E0F640FD0000E016EB0
:10E07A00000E026E000E036E000E046E1200D8909F
:10E08A000A360B360C360D360F060F50D8A4F7D7C2
:10E09A000AC001F00BC002F00CC003F00DC004F07E
:10E0AA00120030C034F0356A366A2F34343601E350
:10E0BA0035803450396E33C034F0356A366A3234BA
:10E0CA00343601E335803450386E3950D8B40BD029
:10E0DA003850395CD8B00ED0395000083824346E24
:10E0EA00180E346407D031C02EF032C02FF033C07E
:10E0FA0030F012003850D8B40BD03950385CD8B050
:10E10A000ED0385000083924346E180E346407D003
:10E11A002EC02EF02FC02FF030C030F01200060EA5
:10E12A00376E30BE378E33BE378C2F8EFF0E2E16CB
:10E13A00FF0E2F16000E3016328EFF0E3116FF0E0E
:10E14A003216000E33163850395CD8B01BD0D8902E
:10E15A00313632363336380639503818D8B40DD0FD
:10E16A00370637C034F0070E3416D8B406D0EFD7C6
:10E17A00D89030322F322E32392A38503918D8B442
:10E18A001FD0F6D73950385CD8B01AD0D8902E366E
:10E19A002F363036390639503818D8B40DD03706EC
:10E1AA0037C034F0070E3416D8B406D0EFD7D8905B
:10E1BA00333232323132382A38503918D8A4F7D7A4
:10E1CA0037AE0CD0FF0E2E1AFF0E2F1AFF0E301A82
:10E1DA00010E2E26000E2F22000E302237AC0CD054
:10E1EA00FF0E311AFF0E321AFF0E331A010E3126B4
:10E1FA00000E3222000E3322000E376E2E503126C8
:10E20A002F5032223050332233AE0ED0FF0E311A45
:10E21A00FF0E321AFF0E331A010E3126000E322279
:10E22A00000E3322010E376E31C001F032C002F007
:10E23A0033C003F039C004F037C005F06BEC6DF061
:10E24A0001C02EF002C02FF003C030F012002D6E74
:10E25A006D0E2D649FD0000E126E030E116E000E0D
:10E26A000A6E0A0E096E000E046E640E036E2DC04D
:10E27A0001F0026AE1EC6BF001C007F002C008F09D
:10E28A0099EC6CF0090E07240F6E000E0820106E30
:10E29A00CCEC6AF0A20E0F24F66EFE0E1020F76E7A
:10E2AA000900F5CF18F00900F5CF19F00A00F5CFEB
:10E2BA001AF0000E0A6E640E096E2DC007F0086A85
:10E2CA0099EC6CF0120E07240F6E000E0820106EE7
:10E2DA00000E126E030E116ECCEC6AF0A20E0F2421
:10E2EA00F66EFE0E1020F76E0900F5CF15F0090044
:10E2FA00F5CF16F00A00F5CF17F035EC6EF015C021
:10E30A002AF016C02BF017C02CF0000E126E030E66
:10E31A00116E000E046E0A0E036E2DC001F0026A21
:10E32A00E1EC6BF001C00FF002C010F0CCEC6AF027
:10E33A00A20E0F24F66EFE0E1020F76E0900F5CF1E
:10E34A0018F00900F5CF19F00A00F5CF1AF02AC023
:10E35A0015F02BC016F02CC017F035EC6EF015C076
:10E36A0027F016C028F017C029F027C015F028C0DA
:10E37A0016F029C017F0000E186E000E196E3F0E27
:10E38A001A6E35EC6EF015C024F016C025F017C0D1
:10E39A0026F012000A0E2D645DD0000E126E030ED6
:10E3AA00116E000E046E0A0E036E2DC001F0026A91
:10E3BA00E1EC6BF001C00FF002C010F0CCEC6AF097
:10E3CA00A20E0F24F66EFE0E1020F76E0900F5CF8E
:10E3DA0018F00900F5CF19F00A00F5CF1AF0000E6F
:10E3EA000A6E0A0E096E2DC007F0086A99EC6CF0E5
:10E3FA00090E07240F6E000E0820106E000E126E12
:10E40A00030E116ECCEC6AF0A20E0F24F66EFE0E0D
:10E41A001020F76E0900F5CF15F00900F5CF16F0B8
:10E42A000A00F5CF17F035EC6EF015C02AF016C0C9
:10E43A002BF017C02CF02AC015F02BC016F02CC0F8
:10E44A0017F0000E186E000E196E3F0E1A6E35EC9C
:10E45A006EF099D72D50030DA20EF324F66EFE0E20
:10E46A00F420F76E0900F5CF15F00900F5CF16F084
:10E47A000A00F5CF17F0000E186E000E196E3F0E47
:10E48A001A6E35EC6EF015C024F016C025F017C0D0
:10E49A0026F012002A6E2AAEFBD02A6C2A50800A75
:10E4AA00120FD8A091D0000E126E030E116E000E3C
:10E4BA000A6E0A0E096E000E046E640E036E2A506E
:10E4CA00016E026A01BE0206E1EC6BF001C007F0C0
:10E4DA0002C008F099EC6CF0090E07240F6E000ECA
:10E4EA000820106ECCEC6AF0A20E0F24F66EFE0E17
:10E4FA001020F76E0900F5CF18F00900F5CF19F0D2
:10E50A000A00F5CF1AF0000E0A6E640E096E2A5040
:10E51A00076E086A07BE080699EC6CF0120E07240B
:10E52A000F6E000E0820106E000E126E030E116E92
:10E53A00CCEC6AF0A20E0F24F66EFE0E1020F76ED7
:10E54A000900F5CF15F00900F5CF16F00A00F5CF4E
:10E55A0017F035EC6EF015C027F016C028F017C07A
:10E56A0029F027C015F028C016F029C017F0000EB0
:10E57A00126E030E116E000E046E0A0E036E2A50FE
:10E58A00016E026A01BE0206E1EC6BF001C00FF0F7
:10E59A0002C010F0CCEC6AF0A20E0F24F66EFE0E4A
:10E5AA001020F76E0900F5CF18F00900F5CF19F021
:10E5BA000A00F5CF1AF035EC6EF015C024F016C03B
:10E5CA0025F017C026F012002A50800A750FD8A02D
:10E5DA004DD0000E0A6E0A0E096E2A50076E086A9E
:10E5EA0007BE080699EC6CF0090E07240F6E000EA0
:10E5FA000820106E000E126E030E116ECCEC6AF03B
:10E60A00A20E0F24F66EFE0E1020F76E0900F5CF4B
:10E61A0015F00900F5CF16F00A00F5CF17F0000E35
:10E62A00126E030E116E000E046E0A0E036E2A504D
:10E63A00016E026A01BE0206E1EC6BF001C00FF046
:10E64A0002C010F0CCEC6AF0A20E0F24F66EFE0E99
:10E65A001020F76E0900F5CF18F00900F5CF19F070
:10E66A000A00F5CF1AF035EC6EF0A7D72A50030D41
:10E67A00A20EF324F66EFE0EF420F76E0900F5CF13
:10E68A0024F00900F5CF25F00A00F5CF26F0120094
:10E69A002A50800A120FD8A091D0000E126E030ED3
:10E6AA00116E000E0A6E0A0E096E000E046E640EDA
:10E6BA00036E2A50016E026A01BE0206E1EC6BF09B
:10E6CA0001C007F002C008F099EC6CF0090E0724AB
:10E6DA000F6E000E0820106ECCEC6AF07B0E0F2431
:10E6EA00F66EFE0E1020F76E0900F5CF18F009003D
:10E6FA00F5CF19F00A00F5CF1AF0000E0A6E640E73
:10E70A00096E2A50076E086A07BE080699EC6CF073
:10E71A00120E07240F6E000E0820106E000E126EE5
:10E72A00030E116ECCEC6AF07B0E0F24F66EFE0E11
:10E73A001020F76E0900F5CF15F00900F5CF16F095
:10E74A000A00F5CF17F035EC6EF015C027F016C0A9
:10E75A0028F017C029F027C015F028C016F029C0E4
:10E76A0017F0000E126E030E116E000E046E0A0EE2
:10E77A00036E2A50016E026A01BE0206E1EC6BF0DA
:10E78A0001C00FF002C010F0CCEC6AF07B0E0F242F
:10E79A00F66EFE0E1020F76E0900F5CF18F009008C
:10E7AA00F5CF19F00A00F5CF1AF035EC6EF015C066
:10E7BA0024F016C025F017C026F012002A50800A4D
:10E7CA00750FD8A04DD0000E0A6E0A0E096E2A5097
:10E7DA00076E086A07BE080699EC6CF0090E072452
:10E7EA000F6E000E0820106E000E126E030E116ED0
:10E7FA00CCEC6AF07B0E0F24F66EFE0E1020F76E3C
:10E80A000900F5CF15F00900F5CF16F00A00F5CF8B
:10E81A0017F0000E126E030E116E000E046E0A0E31
:10E82A00036E2A50016E026A01BE0206E1EC6BF029
:10E83A0001C00FF002C010F0CCEC6AF07B0E0F247E
:10E84A00F66EFE0E1020F76E0900F5CF18F00900DB
:10E85A00F5CF19F00A00F5CF1AF035EC6EF0A7D70C
:10E86A002A50030D7B0EF324F66EFE0EF420F76E8B
:10E87A000900F5CF24F00900F5CF25F00A00F5CFFD
:10E88A0026F0120038EC6BF05AEC6BF00C0E66ECCA
:10E89A006AF05FEC76F000019B51D8B404D2010E05
:10E8AA0066EC6AF0C30E6E6ECD0EE82EFED76E2EA3
:10E8BA00FCD700F0800E66EC6AF0410E6E6EEE0E2A
:10E8CA00E82EFED76E2EFCD700D01C0E406EFF0E2F
:10E8DA00416E67EC7AF0C00E66EC6AF01CD03D0E11
:10E8EA00406EFF0E416E67EC7AF021D0B00E406E9A
:10E8FA00FF0E416E67EC7AF01AD0DC0E406EFF0E06
:10E90A00416E67EC7AF013D0880E406EFF0E416EAE
:10E91A0067EC7AF00CD000018151000AD8B4E6D72E
:10E92A00010AD8B4DCD7030AD8B4E7D7EDD7660E04
:10E93A006F6E760E6E6EC10EE82EFED76E2EFCD767
:10E94A006F2EFAD700F0010E66EC6AF0C30E6E6EF7
:10E95A00CD0EE82EFED76E2EFCD700F0800E66ECA8
:10E96A006AF0410E6E6EEE0EE82EFED76E2EFCD7C2
:10E97A0000D07A0E406EFF0E416E92C042F093C0F4
:10E98A0043F067EC7AF0C00E66EC6AF0D10E406E86
:10E99A00FF0E416E94C042F095C043F096C044F019
:10E9AA0097C045F067EC7AF0660E6F6E760E6E6E63
:10E9BA00C10EE82EFED76E2EFCD76F2EFAD700F0C6
:10E9CA00010E66EC6AF0C30E6E6ECD0EE82EFED70F
:10E9DA006E2EFCD700F0800E66EC6AF0410E6E6E69
:10E9EA00EE0EE82EFED76E2EFCD700D05D0E406EDE
:10E9FA00FF0E416E80C042F0436A67EC7AF0C00EA7
:10EA0A0066EC6AF0A30E406EFF0E416E82C042F0C1
:10EA1A00436A67EC7AF0660E6F6E760E6E6EC10E02
:10EA2A00E82EFED76E2EFCD76F2EFAD700F0010E15
:10EA3A0066EC6AF0C30E6E6ECD0EE82EFED76E2E11
:10EA4A00FCD700F0800E66EC6AF0410E6E6EEE0E98
:10EA5A00E82EFED76E2EFCD700D0960E406EFF0E23
:10EA6A00416E00018451426E436A00018351446E33
:10EA7A00456A67EC7AF0C00E66EC6AF085C076F0FB
:10EA8A0086C077F087C078F088C079F089C07AF0BC
:10EA9A004D0E406EFF0E416E7AC042F0436A79C055
:10EAAA0044F0456A78C046F0476A77C048F0496A38
:10EABA0076C04AF04B6A67EC7AF0660E6F6E760E95
:10EACA006E6EC10EE82EFED76E2EFCD76F2EFAD7C9
:10EADA0000F0010E66EC6AF0C30E6E6ECD0EE82EE3
:10EAEA00FED76E2EFCD700F0800E66EC6AF0410E5F
:10EAFA006E6EEE0EE82EFED76E2EFCD700D0BB0E41
:10EB0A00406EFF0E416E8AC06EF06E3A0F0E6E16A0
:10EB1A000F0E6E166E50426E436A8AC06FF00F0E69
:10EB2A006F166F50446E456A67EC7AF0C00E66EC59
:10EB3A006AF0E60E406EFF0E416E8DC042F08EC046
:10EB4A0043F0446A456A67EC7AF0AD0E406EFF0EF8
:10EB5A00416E20EE8BF0FF0EDE14426EFF0EDE14C5
:10EB6A00436E000EDE14446E000EDE14456E67EC32
:10EB7A007AF0660E6F6E760E6E6EC10EE82EFED7B6
:10EB8A006E2EFCD76F2EFAD700F0010E66EC6AF0F3
:10EB9A00C30E6E6ECD0EE82EFED76E2EFCD700F099
:10EBAA00800E66EC6AF0410E6E6EEE0EE82EFED70F
:10EBBA006E2EFCD700D0D00E6E6E070E6F6E20EE52
:10EBCA008FF0DECF70F0DDCF71F0040E726ED89048
:10EBDA0071327032722EFBD770506E24736E000E33
:10EBEA006F20746E00018F510F0B756EC60E406E4A
:10EBFA00FF0E416E75C042F0436A73C044F074C0A0
:10EC0A0045F067EC7AF0C00E66EC6AF0F00E406EE2
:10EC1A00FF0E416E91C042F0436A67EC7AF0660ECD
:10EC2A006F6E760E6E6EC10EE82EFED76E2EFCD774
:10EC3A006F2EFAD700F0010E66EC6AF0C30E6E6E04
:10EC4A00CD0EE82EFED76E2EFCD700F0800E66ECB5
:10EC5A006AF0410E6E6EEE0EE82EFED76E2EFCD7CF
:10EC6A0000D06C0E406EFF0E416E67EC7AF0C00E5B
:10EC7A0066EC6AF0F90E406EFF0E416E98C042F0E3
:10EC8A0099C043F09AC044F067EC7AF0660E6F6E52
:10EC9A00760E6E6EC10EE82EFED76E2EFCD76F2E44
:10ECAA00FAD700F0F8D52D0E406EFF0E416E67ECD4
:10ECBA007AF0FFD7D3CF45F09BCF46F020EEAEF0E7
:10ECCA0010EE4BF00F0EDBCFE3FFE806FCE29B9061
:10ECDA009B929B949B969B98D3508F0B6009D36E03
:10ECEA00030ED3129B8C04D0420EE82EFED700D01E
:10ECFA00D3A4FAD7400EDFEC6AF0020E3B6E040E84
:10ED0A003A6EBA0EE82EFED73A2EFCD73B2EFAD729
:10ED1A0000D08D849694000E606E090E606401D056
:10ED2A0005D0FF0E61EC6AF0602AF7D78D94000EC9
:10ED3A00046E000E056E000E066E000E076E0A0EB9
:10ED4A00F66EFF0EF76E0800F550DBEC6CF03A6ECB
:10ED5A00F30EF66EFE0EF76E0800F5503A18D8A4B8
:10ED6A00E6D7AA0E046E010E056E000E066E000EA0
:10ED7A00076E070EF66EFF0EF76E0800F550DBEC15
:10ED8A006CF05F6E8D94000E606E030E606401D0AD
:10ED9A000DD06050010D4B0EF324D96E000EF420F5
:10EDAA00DA6E5DEC6AF0DF6E602AEFD78D84F20EC0
:10EDBA00F66EFE0EF76E0800F5CF3AF05F503A1481
:10EDCA003B6EF20EF66EFE0EF76E0800F5503B181B
:10EDDA00D8A42CD0010E0001806F000E046E000E24
:10EDEA00056E000E066E000E076EF80EF66EFE0E2B
:10EDFA00F76E0800F550DBEC6CF08D94000E606E37
:10EE0A00030E606401D00DD06050010D4B0EF32447
:10EE1A00D96E000EF420DA6E5DEC6AF0DF6E602ABD
:10EE2A00EFD78D844D04D8A4120012D0F30EF66EDB
:10EE3A00FE0EF76E0800F5505F6293D74D04D8A412
:10EE4A001200AA0E4E18D8A41200020E0001806FFA
:10EE5A0000018005D8B408D0000E416E000E426E43
:10EE6A00000E436E400E07D0000E416E000E426E39
:10EE7A00000E436E000E446E41C00DF042C00EF00B
:10EE8A0043C00FF044C010F0F50EF66EFE0EF76E9A
:10EE9A000800F550FBEC6AF05F6EF40EF66EFE0E9B
:10EEAA00F76E0800F5505F18D8B413D0F20EF66E5C
:10EEBA00FE0EF76E0800F5CF3AF05F503A143B6E3B
:10EECA00F20EF66EFE0EF76E0800F5503B18D8A447
:10EEDA00D3D7F20EF66EFE0EF76E0800F5CF3AF0B3
:10EEEA005F503A143B6EF20EF66EFE0EF76E080095
:10EEFA00F5503B18D8A41CD000018005D8A414D022
:10EF0A00020E0001816F000E046E000E056E000EE7
:10EF1A00066E000E076E080EF66EFF0EF76E0800FC
:10EF2A00F550DBEC6CF004D0000E00019B6F120070
:10EF3A00020E00018119D8B427D0000E046E000E0B
:10EF4A00056E000E066E000E076EF80EF66EFE0EC9
:10EF5A00F76E0800F550DBEC6CF08D945DEC6AF00E
:10EF6A00C00BC00AD8A402D0010E01D0000E0001C5
:10EF7A00816F000E606E020E606401D004D05DECF9
:10EF8A006AF0602AF8D78D84000E046E020E056EB0
:10EF9A00000E066E000E076E010EF66EFF0EF76E7D
:10EFAA000800F550DBEC6CF03A6EF40EF66EFE0ECD
:10EFBA00F76E0800F5503A18D8A4E6D7020E0001F9
:10EFCA00936F000E926F000E046E000E056E000E17
:10EFDA00066E000E076E050EF66EFF0EF76E08003F
:10EFEA00F550DBEC6CF08D945DEC6AF03A6EF10E44
:10EFFA00F66EFE0EF76E0800F5503A18D8A4F4D74C
:10F00A00000E606E0F0E606401D00DD06050010DCD
:10F01A004B0EF324D96E000EF420DA6E5DEC6AF022
:10F02A00DF6E602AEFD75DEC6AF05DEC6AF08D84E2
:10F03A00020E00018019D8A46CD0010E5424476E28
:10F04A00486A000E4822496A000E49224A6A000E9E
:10F05A004A2253503B6E3A6A3AC03CF03BC03DF0FC
:10F06A00000E3DBEFF0E3E6E3F6E3C5047123D50B5
:10F07A0048123E5049123F504A1252C03AF03F0ECF
:10F08A003A163AC03BF03C6A3D6A3E6A3CC03EF0E2
:10F09A003BC03DF03C6A3B6A3B5047123C50481229
:10F0AA003D5049123E504A1247C009F048C00AF082
:10F0BA0049C00BF04AC00CF080EC6BF009C015F0A7
:10F0CA000AC016F00BC017F0380E186E060E196E2D
:10F0DA003F0E1A6E35EC6EF015C098F016C099F016
:10F0EA0017C09AF0000E186E000E196E450E1A6EB1
:10F0FA0098C015F099C016F09AC017F035EC6EF06A
:10F10A0015C02BF016C02CF017C02DF0AFEC6EF026
:10F11A00BED051C03AF0030E3A163AC03BF03C6AF0
:10F12A003D6A3E6A040ED8903B363C363D363E3642
:10F13A00E82EF9D73BC05BF03CC05CF03DC05DF007
:10F14A003EC05EF052503A6E3B6AD8903A363B3631
:10F15A00D8903A363B363AC03CF03BC03DF0000E00
:10F16A003DBEFF0E3E6E3F6E3C505B123D505C1240
:10F17A003E505D123F505E1253C03AF0D8903A3278
:10F18A00D8903A32300E3A16010E3A243B6E3C6A57
:10F19A00000E3C223D6A000E3D223E6A000E3E22CF
:10F1AA003B505B123C505C123D505D123E505E1269
:10F1BA0054C03AF0030E3A163B6A55AE01D03B2AC8
:10F1CA003B303A343C6E020E3C265BC03DF05CC0DC
:10F1DA003EF05DC03FF05EC040F03C2A05D0D890BA
:10F1EA003D363E363F3640363C2EF9D73DC05BF0C1
:10F1FA003EC05CF03FC05DF040C05EF050C03AF0E7
:10F20A000F0E3A165BC03BF05CC03CF05DC03DF0AF
:10F21A005EC03EF03A2A05D0D8903B363C363D36A1
:10F22A003E363A2EF9D73BC05BF03CC05CF03DC09D
:10F23A005DF03EC05EF05BC009F05CC00AF05DC0E4
:10F24A000BF05EC00CF080EC6BF009C098F00AC0BD
:10F25A0099F00BC09AF092C009F093C00AF0A8EC9A
:10F26A006AF009C00FF00AC010F00BC011F098C084
:10F27A000CF099C00DF09AC00EF0C2EC6DF00CC003
:10F28A002BF00DC02CF00EC02DF0AFEC6EF02BC0A1
:10F29A0094F02CC095F02DC096F02EC097F0000E79
:10F2AA00046E000E056E000E066E000E076E040E4A
:10F2BA00F66EFF0EF76E0800F550DBEC6CF08D94DD
:10F2CA005DEC6AF05F6EF10EF66EFE0EF76E0800E8
:10F2DA00F5505F62F5D7000E606E0F0E606401D0C4
:10F2EA000DD06050010D4B0EF324D96E000EF420A0
:10F2FA00DA6E5DEC6AF0DF6E602AEFD75DEC6AF0D9
:10F30A005DEC6AF08D844BC082F04C503A6E4D50E1
:10F31A000001836F3AC084F04EC089F04FC03AF0C2
:10F32A003B6A3C6A3D6A3AC03DF03C6A3B6A3A6ACB
:10F33A003AC085F03BC086F03CC087F03DC088F0FB
:10F34A0050C03AF03B6A3C6A3D6A3BC03DF03AC065
:10F35A003CF03B6A3A6A3A50000185133B5000017F
:10F36A0086133C50000187133D500001881351C099
:10F37A003AF03B6A3C6A3D6A3CC03DF03BC03CF017
:10F38A003AC03BF03A6A3A50000185133B500001FB
:10F39A0086133C50000187133D50000188135250D8
:10F3AA000001851353C08AF054C03AF03B6A3C6AA4
:10F3BA003D6A3AC03DF03C6A3B6A3A6A3AC08BF011
:10F3CA003BC08CF03CC08DF03DC08EF055C03AF089
:10F3DA003B6A3C6A3D6A3BC03DF03AC03CF03B6A3E
:10F3EA003A6A3A5000018B133B5000018C133C508F
:10F3FA0000018D133D5000018E1356C03AF03B6A4E
:10F40A003C6A3D6A3CC03DF03BC03CF03AC03BF030
:10F41A003A6A3A5000018B133B5000018C133C505E
:10F42A0000018D133D5000018E13575000018B13BC
:10F43A0058500F0B3A6E595000018F6F3AC090F036
:10F44A005A50FE0B0001916F8D84C69A100EC66E3B
:10F45A0045C0D3FF46C09BFF04D0420EE82EFED71C
:10F46A0000D0D3A4FAD7C68A010E0001A46F000EF9
:10F47A000001A06F000EA16F000EA26F000EA36F15
:10F48A00000E00019C6F000E9D6F000E9E6F000E15
:10F49A009F6F010E0001AD6F000E0001A96F000EF3
:10F4AA00AA6F000EAB6F000EAC6F000E0001A56FC5
:10F4BA00000EA66F000EA76F000EA86F010E0001C6
:10F4CA009B6F1200420E5A6E000E5B6E1BEF7FF0AE
:10F4DA00250E6D18D8B405D06D5070EC6AF01BEF8C
:10F4EA007FF0000E5F6E000E5E6E40C0F6FF41C0F8
:10F4FA00F7FF0800F5502E0AD8A42ED05F8C404A98
:10F50A00412A000E6C6E000E6B6E1BD06BC00FF0A2
:10F51A006CC010F0000E126E0A0E116ECCEC6AF07E
:10F52A0040C0F6FF41C0F7FF0800F5500F26000E55
:10F53A001022D00E0F246B6EFF0E10206C6E404A04
:10F54A00412A40C0F6FF41C0F7FF0800F55087EC9A
:10F55A006AF0D8A045D0DAD7000E6C6E000E6B6E3A
:10F56A005F883ED05E883CD05F845DD05E8E5BD083
:10F57A006B506C10D8B414D058506B5C59506C58FE
:10F58A00D8B00ED06BC058F06CC059F009D055C035
:10F59A00D9FF56C0DAFFDF5070EC6AF0554A562A96
:10F5AA005806D8A059065828F2E15928D8B41BEFB2
:10F5BA007FF0EDD75AC0D9FF5BC0DAFFDF506D6E1E
:10F5CA00020E5A26000E5B226D0E556E000E566E06
:10F5DA00000E596E010E586ECBD7C00E5E1223D0A4
:10F5EA0040C0F6FF41C0F7FF404A412A0800F5CF64
:10F5FA006DF06D50000AD8B41200630AD8B4DAD795
:10F60A00070AD8B410D0020AD8B4AED70F0AD8B4B1
:10F61A000AD0050AD8B4A6D7190AD8B4DED70D0A73
:10F62A00D8B4A4D7D1D7070E5F14D8B49ED25FA896
:10F63A0004D0000E6C6E060E6B6E5AC0D9FF5BC00A
:10F64A00DAFFDECF68F0DECF69F0DDCF6AF0030EB5
:10F65A005A26000E5B226AAE10D068C001F069C05B
:10F66A0002F06AC003F0BAEC6AF001C068F002C0A6
:10F67A0069F003C06AF0030E5E12000E5D6E000EA2
:10F68A005C6E685069106A10D8B483D0820E4C6ED2
:10F69A00FF0E4D6E68C04EF069C04FF06AC050F060
:10F6AA006BC051F0100E05D0D890513250324F3203
:10F6BA004E32E82EF9D74E504C245C6E000E4D2087
:10F6CA005D6E5C06D8A05D065CC00FF05DC010F0F0
:10F6DA00000E126E030E116ECCEC6AF00FC05CF0D5
:10F6EA0010C05DF05CC007F05DC008F0000E0A6E45
:10F6FA000A0E096E99EC6CF007C05CF008C05DF068
:10F70A005DAE03D05C06D8A05D065C5000084FECE5
:10F71A0072F024C060F025C061F026C062F060C0BB
:10F72A0015F061C016F062C017F068C018F069C021
:10F73A0019F06AC01AF035EC6EF015C060F016C008
:10F74A0061F017C062F060C001F061C002F062C0EF
:10F75A0003F0000E046E800E056E3F0E066E23EC5B
:10F76A006DF0D8B004D05C06D8A05D0612D060C097
:10F77A0001F061C002F062C003F0000E046E200EB8
:10F78A00056E410E066E23EC6DF0D8A002D05C4ADD
:10F79A005D2A6CBE06D06C501BE10D0E6B5CD8B0B6
:10F7AA0017D068C02EF069C02FF06AC030F06B50D5
:10F7BA002CEC71F024C031F025C032F026C033F0B1
:10F7CA0056EC70F02EC068F02FC069F030C06AF0B5
:10F7DA005DBE06D05D501EE10A0E5C5CD8B01AD040
:10F7EA00685069106A10D8B451D068C02BF069C04B
:10F7FA002CF06AC02DF0AFEC6EF02B502C102D10AF
:10F80A002E10D8B45DBE42D05D5004E1020E5C5C9D
:10F81A00D8A03CD060C001F061C002F062C003F021
:10F82A00700E046E890E056E400E066E23EC6DF0A6
:10F83A00D8B002D0F70E01D0F80E5C26FF0E5D227A
:10F84A005C504FEC72F024C060F025C061F026C015
:10F85A0062F068C001F069C002F06AC003F060C0DB
:10F86A0004F061C005F062C006F0BDEC6FF001C0A3
:10F87A0064F002C065F003C066F004C067F0000ED1
:10F88A00686E000E696E000E6A6E32D068C02BF088
:10F89A0069C02CF06AC02DF0AFEC6EF02BC064F09A
:10F8AA002CC065F02DC066F02EC067F068C03AF033
:10F8BA0069C03BF06AC03CF064C009F065C00AF058
:10F8CA0066C00BF067C00CF080EC6BF009C03DF02D
:10F8DA000AC03EF00BC03FF018EC6BF03AC068F07B
:10F8EA003BC069F03CC06AF0000E5D6E000E5C6EB3
:10F8FA00010E6D6E0A0E6D18D8B418D06D50040D35
:10F90A00530EF324F66EFE0EF420F76E0900F5503E
:10F91A00645C0900F55065580900F55066580900FD
:10F92A00F5506758D8A002D06D2AE4D7030E5E14AA
:10F93A004C6E000E5F144D6E4C504D10D8B448D02A
:10F94A002D0E70EC6AF044D064C001F065C002F07C
:10F95A0066C003F067C004F06D50040D530EF32423
:10F96A00F66EFE0EF420F76E0900F5CF05F00900D9
:10F97A00F5CF06F00900F5CF07F00A00F5CF08F039
:10F98A0058EC6CF001C060F002C061F003C062F094
:10F99A0004C063F060C00EF061C00FF062C010F0E6
:10F9AA0063C011F00A0E126E000E136E000E146E72
:10F9BA00000E156EAEEC6BF00EC060F00FC061F079
:10F9CA0010C062F011C063F06050300F70EC6AF042
:10F9DA006D066D28D8B407D0B7D7300E70EC6AF030
:10F9EA005C06D8A05D065DBE05D05D50F6E15C04FC
:10F9FA00D8B0F3D76CBE09D06C5004E1090E6B5C29
:10FA0A00D8A003D0080E6D6E02D06BC06DF06D5099
:10FA1A006B5E000E6DBEFF0E6C5A6D50D8B403D0EB
:10FA2A002E0E70EC6AF06D504FEC72F024C052F05A
:10FA3A0025C053F026C054F068C018F069C019F008
:10FA4A006AC01AF052C015F053C016F054C017F02D
:10FA5A0035EC6EF015C02BF016C02CF017C02DF047
:10FA6A00AFEC6EF02BC064F02CC065F02DC066F0D0
:10FA7A002EC067F06AD064C001F065C002F066C0AB
:10FA8A0003F067C004F06D50040D530EF324F66EB4
:10FA9A00FE0EF420F76E0900F5CF05F00900F5CF48
:10FAAA0006F00900F5CF07F00A00F5CF08F058EC88
:10FABA006CF001C060F002C061F003C062F004C0E3
:10FACA0063F060C00EF061C00FF062C010F063C056
:10FADA0011F00A0E126E000E136E000E146E000E56
:10FAEA00156EAEEC6BF00EC060F00FC061F010C086
:10FAFA0062F011C063F06050300F70EC6AF064C0BD
:10FB0A000EF065C00FF066C010F067C011F06D50BE
:10FB1A00040D530EF324F66EFE0EF420F76E090060
:10FB2A00F5CF12F00900F5CF13F00900F5CF14F064
:10FB3A000A00F5CF15F0AEEC6BF00EC064F00FC002
:10FB4A0065F010C066F011C067F06D066D28D8B474
:10FB5A0007D091D7300E70EC6AF06B06D8A06C060D
:10FB6A006B506C10D8B462D1F5D7C00E5E144C6ECF
:10FB7A00000E5F144D6E4C504D10D8A42ED05EA8C6
:10FB8A000ED05AC0D9FF5BC0DAFFDECF64F0DECFF9
:10FB9A0065F0DECF66F0DECF67F0040E0ED05AC0F5
:10FBAA00D9FF5BC0DAFFDECF64F0DDCF65F0000E6F
:10FBBA0065BEFF0E666E676E020E5A26000E5B2247
:10FBCA0067AE2DD0030E5E12671E661E651E646C3C
:10FBDA00000E65226622672222D05EA80ED05AC085
:10FBEA00D9FF5BC0DAFFDECF64F0DECF65F0DECF8F
:10FBFA0066F0DECF67F0040E0FD05AC0D9FF5BC0A3
:10FC0A00DAFFDECF4CF0DDCF4DF04CC064F04DC0D2
:10FC1A0065F0666A676A020E5A26000E5B226B500E
:10FC2A006C10D8A445D06450651066106710D8A42B
:10FC3A003FD06B4A6C2A3CD0010E6D6E0A0E6D18CD
:10FC4A00D8B441D06D50040D530EF324F66EFE0E57
:10FC5A00F420F76E0900F550645C0900F550655808
:10FC6A000900F55066580900F5506758D8A02BD0FE
:10FC7A006D2AE4D7010E6D6E080E6D18D8B423D024
:10FC8A006D50040DC90EF324F66EFE0EF420F76EC5
:10FC9A000900F550645C0900F55065580900F550F3
:10FCAA0066580900F5506758D8A00DD06D2AE4D7D8
:10FCBA005E50C00B000AD8B4BFD7800AD8B4DAD7CE
:10FCCA00400AD8B4B9D7800E6DBE7F0E4C6E6B5009
:10FCDA006D5C6C50800A4C58D8B003D06BC06DF084
:10FCEA0010D06C50800A4C6E6D506B5C800E6DBEED
:10FCFA007F0E4C58D8B005D06D506B6E6C6A6BBED7
:10FD0A006C06030E5E144C6E000E5F144D6E4C5062
:10FD1A004D10D8B483D02D0E70EC6AF07FD06BC032
:10FD2A004CF06CC04DF0D8904C364D36D8904C36CD
:10FD3A004D36530E4C24F66EFE0E4D20F76E09001A
:10FD4A00F5CF05F00900F5CF06F00900F5CF07F069
:10FD5A000A00F5CF08F064C001F065C002F066C081
:10FD6A0003F067C004F058EC6CF001C00EF002C05A
:10FD7A000FF003C010F004C011F00A0E126E000E4C
:10FD8A00136E000E146E000E156EAEEC6BF00E5074
:10FD9A00300F6D6E40D064C001F065C002F066C0DD
:10FDAA0003F067C004F06BC04CF06CC04DF0D89003
:10FDBA004C364D36D8904C364D36C90E4C24F66E1C
:10FDCA00FE0E4D20F76E0900F5CF05F00900F5CFBC
:10FDDA0006F00900F5CF07F00A00F5CF08F058EC55
:10FDEA006CF001500F0B576E5750010D0B0EF32498
:10FDFA00F66EFF0EF420F76E0800F5CF6DF00BD00B
:10FE0A005E50C00B000AD8B48AD7800AD8B4C3D7C8
:10FE1A00400AD8B484D76D5070EC6AF06B06D8A04B
:10FE2A006C066B28EDE16C28D8A4EAD740C0F6FF2F
:10FE3A0041C0F7FF404A412A0800F5CF6DF06D50E6
:10FE4A00D8B412006DEF7AF000010000000A000039
:10FE5A000064000000E803000010270000A08601EB
:10FE6A000040420F008096980000E1F50500CA9A0A
:10FE7A003B00803F00204100C842007A44401C46B3
:10FE8A0050C34724744997184BBCBE4C6B6E4E0343
:10FE9A00155079AD60F3497100803FCDCC3DD72331
:10FEAA003C12833AB7D138C62737388635C0D6339D
:10FEBA00CC2B32708930E7DB2EE53C1E42A20D01C5
:10FECA000000001000000000010000001000000007
:10FEDA0000010000001000000000010000001000F6
:10FEEA000102100228FDFCFE0401002917163A3708
:10FEFA0026212019181211100D0C0A0987080195DC
:10FF0A0000303132333435363738396162636465EB
:10FF1A006600534420696E69742073756363657360
:10FF2A00732100534420696E6974206661696C65A7
:10FF3A00642100547970653A20534448432F53444E
:10FF4A00584300504E4D3A202563256325632563A7
:10FF5A0025630053442056657273696F6E3A2025F3
:10FF6A0075004E756D626572206F66204D423A00CB
:10FF7A00426C6B53697A653A202564206200547991
:10FF8A0070653A20556E6B6E6F776E004F454D2047
:10FF9A0049443A2025632563004D46472049443A9F
:10FFAA00203078257800547970653A2053445343B9
:10FFBA00005052563A2025752E2575004D44543A64
:10FFCA002025752F25750023426C6B733A20256C0A
:10FFDA007500547970653A204D4D430050534E3A9E
:10FFEA00203078257800435243373A20257500257A
:06FFFA002E32662000001B
:020000040020DA
:08000000FFFFFFFFFFFFFFFF00
:020000040030CA
:0E000000FF061F1EFF8381FF0F400FE00F4021
:00000001FF
